{"@phala/solidity/contracts/MetaTransaction.sol":{"MetaTxReceiver":{"abi":[{"inputs":[],"stateMutability":"nonpayable","type":"constructor"},{"inputs":[],"name":"InvalidShortString","type":"error"},{"inputs":[],"name":"MetaTxSignatureNotMatch","type":"error"},{"inputs":[{"internalType":"uint256","name":"actual","type":"uint256"},{"internalType":"uint256","name":"currentNonce","type":"uint256"}],"name":"NonceTooLow","type":"error"},{"inputs":[{"internalType":"string","name":"str","type":"string"}],"name":"StringTooLong","type":"error"},{"anonymous":false,"inputs":[],"name":"EIP712DomainChanged","type":"event"},{"inputs":[],"name":"eip712Domain","outputs":[{"internalType":"bytes1","name":"fields","type":"bytes1"},{"internalType":"string","name":"name","type":"string"},{"internalType":"string","name":"version","type":"string"},{"internalType":"uint256","name":"chainId","type":"uint256"},{"internalType":"address","name":"verifyingContract","type":"address"},{"internalType":"bytes32","name":"salt","type":"bytes32"},{"internalType":"uint256[]","name":"extensions","type":"uint256[]"}],"stateMutability":"view","type":"function"},{"inputs":[{"internalType":"address","name":"from","type":"address"}],"name":"metaTxGetNonce","outputs":[{"internalType":"uint256","name":"","type":"uint256"}],"stateMutability":"view","type":"function"},{"inputs":[{"internalType":"address","name":"from","type":"address"},{"internalType":"bytes","name":"data","type":"bytes"}],"name":"metaTxPrepare","outputs":[{"components":[{"internalType":"address","name":"from","type":"address"},{"internalType":"uint256","name":"nonce","type":"uint256"},{"internalType":"bytes","name":"data","type":"bytes"}],"internalType":"struct MetaTxReceiver.ForwardRequest","name":"","type":"tuple"},{"internalType":"bytes32","name":"","type":"bytes32"}],"stateMutability":"view","type":"function"},{"inputs":[{"internalType":"address","name":"from","type":"address"},{"internalType":"bytes","name":"data","type":"bytes"},{"internalType":"uint256","name":"nonce","type":"uint256"}],"name":"metaTxPrepareWithNonce","outputs":[{"components":[{"internalType":"address","name":"from","type":"address"},{"internalType":"uint256","name":"nonce","type":"uint256"},{"internalType":"bytes","name":"data","type":"bytes"}],"internalType":"struct MetaTxReceiver.ForwardRequest","name":"","type":"tuple"},{"internalType":"bytes32","name":"","type":"bytes32"}],"stateMutability":"view","type":"function"},{"inputs":[{"components":[{"internalType":"address","name":"from","type":"address"},{"internalType":"uint256","name":"nonce","type":"uint256"},{"internalType":"bytes","name":"data","type":"bytes"}],"internalType":"struct MetaTxReceiver.ForwardRequest","name":"req","type":"tuple"},{"internalType":"bytes","name":"signature","type":"bytes"}],"name":"metaTxVerify","outputs":[{"internalType":"bool","name":"","type":"bool"}],"stateMutability":"view","type":"function"}],"evm":{"bytecode":{"linkReferences":{},"object":"6101606040523480156200001257600080fd5b506040518060400160405280601881526020017f50686174526f6c6c75704d6574615478526563656976657200000000000000008152506040518060400160405280600581526020017f302e302e310000000000000000000000000000000000000000000000000000008152506200009a6000836200013f60201b6200064d1790919060201c565b6101208181525050620000bd6001826200013f60201b6200064d1790919060201c565b6101408181525050818051906020012060e08181525050808051906020012061010081815250504660a08181525050620000fc6200019c60201b60201c565b608081815250503073ffffffffffffffffffffffffffffffffffffffff1660c08173ffffffffffffffffffffffffffffffffffffffff16815250505050620007f4565b600060208351101562000165576200015d83620001f960201b60201c565b905062000196565b826200017c836200026660201b620006911760201c565b60000190816200018d9190620004ea565b5060ff60001b90505b92915050565b60007f8b73c3c69bb8fe3d512ecc4cf759cc79239f7b179b0ffacaa9a75d522b39400f60e051610100514630604051602001620001de95949392919062000642565b60405160208183030381529060405280519060200120905090565b600080829050601f815111156200024957826040517f305a27a90000000000000000000000000000000000000000000000000000000081526004016200024091906200072e565b60405180910390fd5b805181620002579062000784565b60001c1760001b915050919050565b6000819050919050565b600081519050919050565b7f4e487b7100000000000000000000000000000000000000000000000000000000600052604160045260246000fd5b7f4e487b7100000000000000000000000000000000000000000000000000000000600052602260045260246000fd5b60006002820490506001821680620002f257607f821691505b602082108103620003085762000307620002aa565b5b50919050565b60008190508160005260206000209050919050565b60006020601f8301049050919050565b600082821b905092915050565b600060088302620003727fffffffffffffffffffffffffffffffffffffffffffffffffffffffffffffffff8262000333565b6200037e868362000333565b95508019841693508086168417925050509392505050565b6000819050919050565b6000819050919050565b6000620003cb620003c5620003bf8462000396565b620003a0565b62000396565b9050919050565b6000819050919050565b620003e783620003aa565b620003ff620003f682620003d2565b84845462000340565b825550505050565b600090565b6200041662000407565b62000423818484620003dc565b505050565b5b818110156200044b576200043f6000826200040c565b60018101905062000429565b5050565b601f8211156200049a5762000464816200030e565b6200046f8462000323565b810160208510156200047f578190505b620004976200048e8562000323565b83018262000428565b50505b505050565b600082821c905092915050565b6000620004bf600019846008026200049f565b1980831691505092915050565b6000620004da8383620004ac565b9150826002028217905092915050565b620004f58262000270565b67ffffffffffffffff8111156200051157620005106200027b565b5b6200051d8254620002d9565b6200052a8282856200044f565b600060209050601f8311600181146200056257600084156200054d578287015190505b620005598582620004cc565b865550620005c9565b601f19841662000572866200030e565b60005b828110156200059c5784890151825560018201915060208501945060208101905062000575565b86831015620005bc5784890151620005b8601f891682620004ac565b8355505b6001600288020188555050505b505050505050565b6000819050919050565b620005e681620005d1565b82525050565b620005f78162000396565b82525050565b600073ffffffffffffffffffffffffffffffffffffffff82169050919050565b60006200062a82620005fd565b9050919050565b6200063c816200061d565b82525050565b600060a082019050620006596000830188620005db565b620006686020830187620005db565b620006776040830186620005db565b620006866060830185620005ec565b62000695608083018462000631565b9695505050505050565b600082825260208201905092915050565b60005b83811015620006d0578082015181840152602081019050620006b3565b60008484015250505050565b6000601f19601f8301169050919050565b6000620006fa8262000270565b6200070681856200069f565b935062000718818560208601620006b0565b6200072381620006dc565b840191505092915050565b600060208201905081810360008301526200074a8184620006ed565b905092915050565b600081519050919050565b6000819050602082019050919050565b60006200077b8251620005d1565b80915050919050565b6000620007918262000752565b826200079d846200075d565b9050620007aa816200076d565b92506020821015620007ed57620007e87fffffffffffffffffffffffffffffffffffffffffffffffffffffffffffffffff8360200360080262000333565b831692505b5050919050565b60805160a05160c05160e051610100516101205161014051611aa96200084f60003960006103b30152600061037f01526000610b5d01526000610b3c015260006107f80152600061084e015260006108770152611aa96000f3fe608060405234801561001057600080fd5b50600436106100575760003560e01c806322dae16c1461005c5780635232f0d71461008d57806384b0196e146100be578063bbbfe446146100e2578063f4034a9614610112575b600080fd5b61007660048036038101906100719190610e19565b610142565b604051610084929190610fa4565b60405180910390f35b6100a760048036038101906100a29190610fd4565b61030b565b6040516100b5929190610fa4565b60405180910390f35b6100c661036c565b6040516100d99796959493929190611191565b60405180910390f35b6100fc60048036038101906100f79190611239565b61046e565b60405161010991906112d0565b60405180910390f35b61012c600480360381019061012791906112eb565b610604565b6040516101399190611318565b60405180910390f35b61014a610cdf565b6000600260008773ffffffffffffffffffffffffffffffffffffffff1673ffffffffffffffffffffffffffffffffffffffff168152602001908152602001600020548310156102115782600260008873ffffffffffffffffffffffffffffffffffffffff1673ffffffffffffffffffffffffffffffffffffffff168152602001908152602001600020546040517f045f356c000000000000000000000000000000000000000000000000000000008152600401610208929190611333565b60405180910390fd5b600060405180606001604052808873ffffffffffffffffffffffffffffffffffffffff16815260200185815260200187878080601f016020809104026020016040519081016040528093929190818152602001838380828437600081840152601f19601f82011690508083019250505050505050815250905060006102f87f2c521d146a6f6c09462cb178367b028f1718b1f01d7995bb405dae702c2bee7d89878a8a6040516102c292919061139b565b60405180910390206040516020016102dd94939291906113b4565b6040516020818303038152906040528051906020012061069b565b9050818193509350505094509492505050565b610313610cdf565b6000610360858585600260008a73ffffffffffffffffffffffffffffffffffffffff1673ffffffffffffffffffffffffffffffffffffffff16815260200190815260200160002054610142565b91509150935093915050565b6000606080600080600060606103ac60007f00000000000000000000000000000000000000000000000000000000000000006106b590919063ffffffff16565b6103e060017f00000000000000000000000000000000000000000000000000000000000000006106b590919063ffffffff16565b46306000801b600067ffffffffffffffff811115610401576104006113f9565b5b60405190808252806020026020018201604052801561042f5781602001602082028036833780820191505090505b507f0f00000000000000000000000000000000000000000000000000000000000000959493929190965096509650965096509650965090919293949596565b60008061055784848080601f016020809104026020016040519081016040528093929190818152602001838380828437600081840152601f19601f820116905080830192505050505050506105497f2c521d146a6f6c09462cb178367b028f1718b1f01d7995bb405dae702c2bee7d8860000160208101906104f091906112eb565b89602001358a80604001906105059190611437565b60405161051392919061139b565b604051809103902060405160200161052e94939291906113b4565b6040516020818303038152906040528051906020012061069b565b61076590919063ffffffff16565b905084602001356002600087600001602081019061057591906112eb565b73ffffffffffffffffffffffffffffffffffffffff1673ffffffffffffffffffffffffffffffffffffffff168152602001908152602001600020541480156105fa57508460000160208101906105cb91906112eb565b73ffffffffffffffffffffffffffffffffffffffff168173ffffffffffffffffffffffffffffffffffffffff16145b9150509392505050565b6000600260008373ffffffffffffffffffffffffffffffffffffffff1673ffffffffffffffffffffffffffffffffffffffff168152602001908152602001600020549050919050565b6000602083511015610669576106628361078c565b905061068b565b8261067383610691565b600001908161068291906116a6565b5060ff60001b90505b92915050565b6000819050919050565b60006106ae6106a86107f4565b836108ab565b9050919050565b606060ff60001b83146106d2576106cb836108ec565b905061075f565b8180546106de906114c9565b80601f016020809104026020016040519081016040528092919081815260200182805461070a906114c9565b80156107575780601f1061072c57610100808354040283529160200191610757565b820191906000526020600020905b81548152906001019060200180831161073a57829003601f168201915b505050505090505b92915050565b60008060006107748585610960565b91509150610781816109b1565b819250505092915050565b600080829050601f815111156107d957826040517f305a27a90000000000000000000000000000000000000000000000000000000081526004016107d09190611778565b60405180910390fd5b8051816107e5906117bf565b60001c1760001b915050919050565b60007f000000000000000000000000000000000000000000000000000000000000000073ffffffffffffffffffffffffffffffffffffffff163073ffffffffffffffffffffffffffffffffffffffff1614801561087057507f000000000000000000000000000000000000000000000000000000000000000046145b1561089d577f000000000000000000000000000000000000000000000000000000000000000090506108a8565b6108a5610b17565b90505b90565b60006040517f190100000000000000000000000000000000000000000000000000000000000081528360028201528260228201526042812091505092915050565b606060006108f983610bad565b90506000602067ffffffffffffffff811115610918576109176113f9565b5b6040519080825280601f01601f19166020018201604052801561094a5781602001600182028036833780820191505090505b5090508181528360208201528092505050919050565b60008060418351036109a15760008060006020860151925060408601519150606086015160001a905061099587828585610bfd565b945094505050506109aa565b60006002915091505b9250929050565b600060048111156109c5576109c4611826565b5b8160048111156109d8576109d7611826565b5b0315610b1457600160048111156109f2576109f1611826565b5b816004811115610a0557610a04611826565b5b03610a45576040517f08c379a0000000000000000000000000000000000000000000000000000000008152600401610a3c906118a1565b60405180910390fd5b60026004811115610a5957610a58611826565b5b816004811115610a6c57610a6b611826565b5b03610aac576040517f08c379a0000000000000000000000000000000000000000000000000000000008152600401610aa39061190d565b60405180910390fd5b60036004811115610ac057610abf611826565b5b816004811115610ad357610ad2611826565b5b03610b13576040517f08c379a0000000000000000000000000000000000000000000000000000000008152600401610b0a9061199f565b60405180910390fd5b5b50565b60007f8b73c3c69bb8fe3d512ecc4cf759cc79239f7b179b0ffacaa9a75d522b39400f7f00000000000000000000000000000000000000000000000000000000000000007f00000000000000000000000000000000000000000000000000000000000000004630604051602001610b929594939291906119bf565b60405160208183030381529060405280519060200120905090565b60008060ff8360001c169050601f811115610bf4576040517fb3512b0c00000000000000000000000000000000000000000000000000000000815260040160405180910390fd5b80915050919050565b6000807f7fffffffffffffffffffffffffffffff5d576e7357a4501ddfe92f46681b20a08360001c1115610c38576000600391509150610cd6565b600060018787878760405160008152602001604052604051610c5d9493929190611a2e565b6020604051602081039080840390855afa158015610c7f573d6000803e3d6000fd5b505050602060405103519050600073ffffffffffffffffffffffffffffffffffffffff168173ffffffffffffffffffffffffffffffffffffffff1603610ccd57600060019250925050610cd6565b80600092509250505b94509492505050565b6040518060600160405280600073ffffffffffffffffffffffffffffffffffffffff16815260200160008152602001606081525090565b600080fd5b600080fd5b600073ffffffffffffffffffffffffffffffffffffffff82169050919050565b6000610d4b82610d20565b9050919050565b610d5b81610d40565b8114610d6657600080fd5b50565b600081359050610d7881610d52565b92915050565b600080fd5b600080fd5b600080fd5b60008083601f840112610da357610da2610d7e565b5b8235905067ffffffffffffffff811115610dc057610dbf610d83565b5b602083019150836001820283011115610ddc57610ddb610d88565b5b9250929050565b6000819050919050565b610df681610de3565b8114610e0157600080fd5b50565b600081359050610e1381610ded565b92915050565b60008060008060608587031215610e3357610e32610d16565b5b6000610e4187828801610d69565b945050602085013567ffffffffffffffff811115610e6257610e61610d1b565b5b610e6e87828801610d8d565b93509350506040610e8187828801610e04565b91505092959194509250565b610e9681610d40565b82525050565b610ea581610de3565b82525050565b600081519050919050565b600082825260208201905092915050565b60005b83811015610ee5578082015181840152602081019050610eca565b60008484015250505050565b6000601f19601f8301169050919050565b6000610f0d82610eab565b610f178185610eb6565b9350610f27818560208601610ec7565b610f3081610ef1565b840191505092915050565b6000606083016000830151610f536000860182610e8d565b506020830151610f666020860182610e9c565b5060408301518482036040860152610f7e8282610f02565b9150508091505092915050565b6000819050919050565b610f9e81610f8b565b82525050565b60006040820190508181036000830152610fbe8185610f3b565b9050610fcd6020830184610f95565b9392505050565b600080600060408486031215610fed57610fec610d16565b5b6000610ffb86828701610d69565b935050602084013567ffffffffffffffff81111561101c5761101b610d1b565b5b61102886828701610d8d565b92509250509250925092565b60007fff0000000000000000000000000000000000000000000000000000000000000082169050919050565b61106981611034565b82525050565b600081519050919050565b600082825260208201905092915050565b60006110968261106f565b6110a0818561107a565b93506110b0818560208601610ec7565b6110b981610ef1565b840191505092915050565b6110cd81610de3565b82525050565b6110dc81610d40565b82525050565b600081519050919050565b600082825260208201905092915050565b6000819050602082019050919050565b600061111a8383610e9c565b60208301905092915050565b6000602082019050919050565b600061113e826110e2565b61114881856110ed565b9350611153836110fe565b8060005b8381101561118457815161116b888261110e565b975061117683611126565b925050600181019050611157565b5085935050505092915050565b600060e0820190506111a6600083018a611060565b81810360208301526111b8818961108b565b905081810360408301526111cc818861108b565b90506111db60608301876110c4565b6111e860808301866110d3565b6111f560a0830185610f95565b81810360c08301526112078184611133565b905098975050505050505050565b600080fd5b6000606082840312156112305761122f611215565b5b81905092915050565b60008060006040848603121561125257611251610d16565b5b600084013567ffffffffffffffff8111156112705761126f610d1b565b5b61127c8682870161121a565b935050602084013567ffffffffffffffff81111561129d5761129c610d1b565b5b6112a986828701610d8d565b92509250509250925092565b60008115159050919050565b6112ca816112b5565b82525050565b60006020820190506112e560008301846112c1565b92915050565b60006020828403121561130157611300610d16565b5b600061130f84828501610d69565b91505092915050565b600060208201905061132d60008301846110c4565b92915050565b600060408201905061134860008301856110c4565b61135560208301846110c4565b9392505050565b600081905092915050565b82818337600083830152505050565b6000611382838561135c565b935061138f838584611367565b82840190509392505050565b60006113a8828486611376565b91508190509392505050565b60006080820190506113c96000830187610f95565b6113d660208301866110d3565b6113e360408301856110c4565b6113f06060830184610f95565b95945050505050565b7f4e487b7100000000000000000000000000000000000000000000000000000000600052604160045260246000fd5b600080fd5b600080fd5b600080fd5b6000808335600160200384360303811261145457611453611428565b5b80840192508235915067ffffffffffffffff8211156114765761147561142d565b5b60208301925060018202360383131561149257611491611432565b5b509250929050565b7f4e487b7100000000000000000000000000000000000000000000000000000000600052602260045260246000fd5b600060028204905060018216806114e157607f821691505b6020821081036114f4576114f361149a565b5b50919050565b60008190508160005260206000209050919050565b60006020601f8301049050919050565b600082821b905092915050565b60006008830261155c7fffffffffffffffffffffffffffffffffffffffffffffffffffffffffffffffff8261151f565b611566868361151f565b95508019841693508086168417925050509392505050565b6000819050919050565b60006115a361159e61159984610de3565b61157e565b610de3565b9050919050565b6000819050919050565b6115bd83611588565b6115d16115c9826115aa565b84845461152c565b825550505050565b600090565b6115e66115d9565b6115f18184846115b4565b505050565b5b818110156116155761160a6000826115de565b6001810190506115f7565b5050565b601f82111561165a5761162b816114fa565b6116348461150f565b81016020851015611643578190505b61165761164f8561150f565b8301826115f6565b50505b505050565b600082821c905092915050565b600061167d6000198460080261165f565b1980831691505092915050565b6000611696838361166c565b9150826002028217905092915050565b6116af8261106f565b67ffffffffffffffff8111156116c8576116c76113f9565b5b6116d282546114c9565b6116dd828285611619565b600060209050601f83116001811461171057600084156116fe578287015190505b611708858261168a565b865550611770565b601f19841661171e866114fa565b60005b8281101561174657848901518255600182019150602085019450602081019050611721565b86831015611763578489015161175f601f89168261166c565b8355505b6001600288020188555050505b505050505050565b60006020820190508181036000830152611792818461108b565b905092915050565b6000819050602082019050919050565b60006117b68251610f8b565b80915050919050565b60006117ca82610eab565b826117d48461179a565b90506117df816117aa565b9250602082101561181f5761181a7fffffffffffffffffffffffffffffffffffffffffffffffffffffffffffffffff8360200360080261151f565b831692505b5050919050565b7f4e487b7100000000000000000000000000000000000000000000000000000000600052602160045260246000fd5b7f45434453413a20696e76616c6964207369676e61747572650000000000000000600082015250565b600061188b60188361107a565b915061189682611855565b602082019050919050565b600060208201905081810360008301526118ba8161187e565b9050919050565b7f45434453413a20696e76616c6964207369676e6174757265206c656e67746800600082015250565b60006118f7601f8361107a565b9150611902826118c1565b602082019050919050565b60006020820190508181036000830152611926816118ea565b9050919050565b7f45434453413a20696e76616c6964207369676e6174757265202773272076616c60008201527f7565000000000000000000000000000000000000000000000000000000000000602082015250565b600061198960228361107a565b91506119948261192d565b604082019050919050565b600060208201905081810360008301526119b88161197c565b9050919050565b600060a0820190506119d46000830188610f95565b6119e16020830187610f95565b6119ee6040830186610f95565b6119fb60608301856110c4565b611a0860808301846110d3565b9695505050505050565b600060ff82169050919050565b611a2881611a12565b82525050565b6000608082019050611a436000830187610f95565b611a506020830186611a1f565b611a5d6040830185610f95565b611a6a6060830184610f95565b9594505050505056fea264697066735822122003b3c7f8fef62fd500d6b89658b19c462244308b45ff208af45ec0820237d3f564736f6c63430008110033","opcodes":"PUSH2 0x160 PUSH1 0x40 MSTORE CALLVALUE DUP1 ISZERO PUSH3 0x12 JUMPI PUSH1 0x0 DUP1 REVERT JUMPDEST POP PUSH1 0x40 MLOAD DUP1 PUSH1 0x40 ADD PUSH1 0x40 MSTORE DUP1 PUSH1 0x18 DUP2 MSTORE PUSH1 0x20 ADD PUSH32 0x50686174526F6C6C75704D657461547852656365697665720000000000000000 DUP2 MSTORE POP PUSH1 0x40 MLOAD DUP1 PUSH1 0x40 ADD PUSH1 0x40 MSTORE DUP1 PUSH1 0x5 DUP2 MSTORE PUSH1 0x20 ADD PUSH32 0x302E302E31000000000000000000000000000000000000000000000000000000 DUP2 MSTORE POP PUSH3 0x9A PUSH1 0x0 DUP4 PUSH3 0x13F PUSH1 0x20 SHL PUSH3 0x64D OR SWAP1 SWAP2 SWAP1 PUSH1 0x20 SHR JUMP JUMPDEST PUSH2 0x120 DUP2 DUP2 MSTORE POP POP PUSH3 0xBD PUSH1 0x1 DUP3 PUSH3 0x13F PUSH1 0x20 SHL PUSH3 0x64D OR SWAP1 SWAP2 SWAP1 PUSH1 0x20 SHR JUMP JUMPDEST PUSH2 0x140 DUP2 DUP2 MSTORE POP POP DUP2 DUP1 MLOAD SWAP1 PUSH1 0x20 ADD KECCAK256 PUSH1 0xE0 DUP2 DUP2 MSTORE POP POP DUP1 DUP1 MLOAD SWAP1 PUSH1 0x20 ADD KECCAK256 PUSH2 0x100 DUP2 DUP2 MSTORE POP POP CHAINID PUSH1 0xA0 DUP2 DUP2 MSTORE POP POP PUSH3 0xFC PUSH3 0x19C PUSH1 0x20 SHL PUSH1 0x20 SHR JUMP JUMPDEST PUSH1 0x80 DUP2 DUP2 MSTORE POP POP ADDRESS PUSH20 0xFFFFFFFFFFFFFFFFFFFFFFFFFFFFFFFFFFFFFFFF AND PUSH1 0xC0 DUP2 PUSH20 0xFFFFFFFFFFFFFFFFFFFFFFFFFFFFFFFFFFFFFFFF AND DUP2 MSTORE POP POP POP POP PUSH3 0x7F4 JUMP JUMPDEST PUSH1 0x0 PUSH1 0x20 DUP4 MLOAD LT ISZERO PUSH3 0x165 JUMPI PUSH3 0x15D DUP4 PUSH3 0x1F9 PUSH1 0x20 SHL PUSH1 0x20 SHR JUMP JUMPDEST SWAP1 POP PUSH3 0x196 JUMP JUMPDEST DUP3 PUSH3 0x17C DUP4 PUSH3 0x266 PUSH1 0x20 SHL PUSH3 0x691 OR PUSH1 0x20 SHR JUMP JUMPDEST PUSH1 0x0 ADD SWAP1 DUP2 PUSH3 0x18D SWAP2 SWAP1 PUSH3 0x4EA JUMP JUMPDEST POP PUSH1 0xFF PUSH1 0x0 SHL SWAP1 POP JUMPDEST SWAP3 SWAP2 POP POP JUMP JUMPDEST PUSH1 0x0 PUSH32 0x8B73C3C69BB8FE3D512ECC4CF759CC79239F7B179B0FFACAA9A75D522B39400F PUSH1 0xE0 MLOAD PUSH2 0x100 MLOAD CHAINID ADDRESS PUSH1 0x40 MLOAD PUSH1 0x20 ADD PUSH3 0x1DE SWAP6 SWAP5 SWAP4 SWAP3 SWAP2 SWAP1 PUSH3 0x642 JUMP JUMPDEST PUSH1 0x40 MLOAD PUSH1 0x20 DUP2 DUP4 SUB SUB DUP2 MSTORE SWAP1 PUSH1 0x40 MSTORE DUP1 MLOAD SWAP1 PUSH1 0x20 ADD KECCAK256 SWAP1 POP SWAP1 JUMP JUMPDEST PUSH1 0x0 DUP1 DUP3 SWAP1 POP PUSH1 0x1F DUP2 MLOAD GT ISZERO PUSH3 0x249 JUMPI DUP3 PUSH1 0x40 MLOAD PUSH32 0x305A27A900000000000000000000000000000000000000000000000000000000 DUP2 MSTORE PUSH1 0x4 ADD PUSH3 0x240 SWAP2 SWAP1 PUSH3 0x72E JUMP JUMPDEST PUSH1 0x40 MLOAD DUP1 SWAP2 SUB SWAP1 REVERT JUMPDEST DUP1 MLOAD DUP2 PUSH3 0x257 SWAP1 PUSH3 0x784 JUMP JUMPDEST PUSH1 0x0 SHR OR PUSH1 0x0 SHL SWAP2 POP POP SWAP2 SWAP1 POP JUMP JUMPDEST PUSH1 0x0 DUP2 SWAP1 POP SWAP2 SWAP1 POP JUMP JUMPDEST PUSH1 0x0 DUP2 MLOAD SWAP1 POP SWAP2 SWAP1 POP JUMP JUMPDEST PUSH32 0x4E487B7100000000000000000000000000000000000000000000000000000000 PUSH1 0x0 MSTORE PUSH1 0x41 PUSH1 0x4 MSTORE PUSH1 0x24 PUSH1 0x0 REVERT JUMPDEST PUSH32 0x4E487B7100000000000000000000000000000000000000000000000000000000 PUSH1 0x0 MSTORE PUSH1 0x22 PUSH1 0x4 MSTORE PUSH1 0x24 PUSH1 0x0 REVERT JUMPDEST PUSH1 0x0 PUSH1 0x2 DUP3 DIV SWAP1 POP PUSH1 0x1 DUP3 AND DUP1 PUSH3 0x2F2 JUMPI PUSH1 0x7F DUP3 AND SWAP2 POP JUMPDEST PUSH1 0x20 DUP3 LT DUP2 SUB PUSH3 0x308 JUMPI PUSH3 0x307 PUSH3 0x2AA JUMP JUMPDEST JUMPDEST POP SWAP2 SWAP1 POP JUMP JUMPDEST PUSH1 0x0 DUP2 SWAP1 POP DUP2 PUSH1 0x0 MSTORE PUSH1 0x20 PUSH1 0x0 KECCAK256 SWAP1 POP SWAP2 SWAP1 POP JUMP JUMPDEST PUSH1 0x0 PUSH1 0x20 PUSH1 0x1F DUP4 ADD DIV SWAP1 POP SWAP2 SWAP1 POP JUMP JUMPDEST PUSH1 0x0 DUP3 DUP3 SHL SWAP1 POP SWAP3 SWAP2 POP POP JUMP JUMPDEST PUSH1 0x0 PUSH1 0x8 DUP4 MUL PUSH3 0x372 PUSH32 0xFFFFFFFFFFFFFFFFFFFFFFFFFFFFFFFFFFFFFFFFFFFFFFFFFFFFFFFFFFFFFFFF DUP3 PUSH3 0x333 JUMP JUMPDEST PUSH3 0x37E DUP7 DUP4 PUSH3 0x333 JUMP JUMPDEST SWAP6 POP DUP1 NOT DUP5 AND SWAP4 POP DUP1 DUP7 AND DUP5 OR SWAP3 POP POP POP SWAP4 SWAP3 POP POP POP JUMP JUMPDEST PUSH1 0x0 DUP2 SWAP1 POP SWAP2 SWAP1 POP JUMP JUMPDEST PUSH1 0x0 DUP2 SWAP1 POP SWAP2 SWAP1 POP JUMP JUMPDEST PUSH1 0x0 PUSH3 0x3CB PUSH3 0x3C5 PUSH3 0x3BF DUP5 PUSH3 0x396 JUMP JUMPDEST PUSH3 0x3A0 JUMP JUMPDEST PUSH3 0x396 JUMP JUMPDEST SWAP1 POP SWAP2 SWAP1 POP JUMP JUMPDEST PUSH1 0x0 DUP2 SWAP1 POP SWAP2 SWAP1 POP JUMP JUMPDEST PUSH3 0x3E7 DUP4 PUSH3 0x3AA JUMP JUMPDEST PUSH3 0x3FF PUSH3 0x3F6 DUP3 PUSH3 0x3D2 JUMP JUMPDEST DUP5 DUP5 SLOAD PUSH3 0x340 JUMP JUMPDEST DUP3 SSTORE POP POP POP POP JUMP JUMPDEST PUSH1 0x0 SWAP1 JUMP JUMPDEST PUSH3 0x416 PUSH3 0x407 JUMP JUMPDEST PUSH3 0x423 DUP2 DUP5 DUP5 PUSH3 0x3DC JUMP JUMPDEST POP POP POP JUMP JUMPDEST JUMPDEST DUP2 DUP2 LT ISZERO PUSH3 0x44B JUMPI PUSH3 0x43F PUSH1 0x0 DUP3 PUSH3 0x40C JUMP JUMPDEST PUSH1 0x1 DUP2 ADD SWAP1 POP PUSH3 0x429 JUMP JUMPDEST POP POP JUMP JUMPDEST PUSH1 0x1F DUP3 GT ISZERO PUSH3 0x49A JUMPI PUSH3 0x464 DUP2 PUSH3 0x30E JUMP JUMPDEST PUSH3 0x46F DUP5 PUSH3 0x323 JUMP JUMPDEST DUP2 ADD PUSH1 0x20 DUP6 LT ISZERO PUSH3 0x47F JUMPI DUP2 SWAP1 POP JUMPDEST PUSH3 0x497 PUSH3 0x48E DUP6 PUSH3 0x323 JUMP JUMPDEST DUP4 ADD DUP3 PUSH3 0x428 JUMP JUMPDEST POP POP JUMPDEST POP POP POP JUMP JUMPDEST PUSH1 0x0 DUP3 DUP3 SHR SWAP1 POP SWAP3 SWAP2 POP POP JUMP JUMPDEST PUSH1 0x0 PUSH3 0x4BF PUSH1 0x0 NOT DUP5 PUSH1 0x8 MUL PUSH3 0x49F JUMP JUMPDEST NOT DUP1 DUP4 AND SWAP2 POP POP SWAP3 SWAP2 POP POP JUMP JUMPDEST PUSH1 0x0 PUSH3 0x4DA DUP4 DUP4 PUSH3 0x4AC JUMP JUMPDEST SWAP2 POP DUP3 PUSH1 0x2 MUL DUP3 OR SWAP1 POP SWAP3 SWAP2 POP POP JUMP JUMPDEST PUSH3 0x4F5 DUP3 PUSH3 0x270 JUMP JUMPDEST PUSH8 0xFFFFFFFFFFFFFFFF DUP2 GT ISZERO PUSH3 0x511 JUMPI PUSH3 0x510 PUSH3 0x27B JUMP JUMPDEST JUMPDEST PUSH3 0x51D DUP3 SLOAD PUSH3 0x2D9 JUMP JUMPDEST PUSH3 0x52A DUP3 DUP3 DUP6 PUSH3 0x44F JUMP JUMPDEST PUSH1 0x0 PUSH1 0x20 SWAP1 POP PUSH1 0x1F DUP4 GT PUSH1 0x1 DUP2 EQ PUSH3 0x562 JUMPI PUSH1 0x0 DUP5 ISZERO PUSH3 0x54D JUMPI DUP3 DUP8 ADD MLOAD SWAP1 POP JUMPDEST PUSH3 0x559 DUP6 DUP3 PUSH3 0x4CC JUMP JUMPDEST DUP7 SSTORE POP PUSH3 0x5C9 JUMP JUMPDEST PUSH1 0x1F NOT DUP5 AND PUSH3 0x572 DUP7 PUSH3 0x30E JUMP JUMPDEST PUSH1 0x0 JUMPDEST DUP3 DUP2 LT ISZERO PUSH3 0x59C JUMPI DUP5 DUP10 ADD MLOAD DUP3 SSTORE PUSH1 0x1 DUP3 ADD SWAP2 POP PUSH1 0x20 DUP6 ADD SWAP5 POP PUSH1 0x20 DUP2 ADD SWAP1 POP PUSH3 0x575 JUMP JUMPDEST DUP7 DUP4 LT ISZERO PUSH3 0x5BC JUMPI DUP5 DUP10 ADD MLOAD PUSH3 0x5B8 PUSH1 0x1F DUP10 AND DUP3 PUSH3 0x4AC JUMP JUMPDEST DUP4 SSTORE POP JUMPDEST PUSH1 0x1 PUSH1 0x2 DUP9 MUL ADD DUP9 SSTORE POP POP POP JUMPDEST POP POP POP POP POP POP JUMP JUMPDEST PUSH1 0x0 DUP2 SWAP1 POP SWAP2 SWAP1 POP JUMP JUMPDEST PUSH3 0x5E6 DUP2 PUSH3 0x5D1 JUMP JUMPDEST DUP3 MSTORE POP POP JUMP JUMPDEST PUSH3 0x5F7 DUP2 PUSH3 0x396 JUMP JUMPDEST DUP3 MSTORE POP POP JUMP JUMPDEST PUSH1 0x0 PUSH20 0xFFFFFFFFFFFFFFFFFFFFFFFFFFFFFFFFFFFFFFFF DUP3 AND SWAP1 POP SWAP2 SWAP1 POP JUMP JUMPDEST PUSH1 0x0 PUSH3 0x62A DUP3 PUSH3 0x5FD JUMP JUMPDEST SWAP1 POP SWAP2 SWAP1 POP JUMP JUMPDEST PUSH3 0x63C DUP2 PUSH3 0x61D JUMP JUMPDEST DUP3 MSTORE POP POP JUMP JUMPDEST PUSH1 0x0 PUSH1 0xA0 DUP3 ADD SWAP1 POP PUSH3 0x659 PUSH1 0x0 DUP4 ADD DUP9 PUSH3 0x5DB JUMP JUMPDEST PUSH3 0x668 PUSH1 0x20 DUP4 ADD DUP8 PUSH3 0x5DB JUMP JUMPDEST PUSH3 0x677 PUSH1 0x40 DUP4 ADD DUP7 PUSH3 0x5DB JUMP JUMPDEST PUSH3 0x686 PUSH1 0x60 DUP4 ADD DUP6 PUSH3 0x5EC JUMP JUMPDEST PUSH3 0x695 PUSH1 0x80 DUP4 ADD DUP5 PUSH3 0x631 JUMP JUMPDEST SWAP7 SWAP6 POP POP POP POP POP POP JUMP JUMPDEST PUSH1 0x0 DUP3 DUP3 MSTORE PUSH1 0x20 DUP3 ADD SWAP1 POP SWAP3 SWAP2 POP POP JUMP JUMPDEST PUSH1 0x0 JUMPDEST DUP4 DUP2 LT ISZERO PUSH3 0x6D0 JUMPI DUP1 DUP3 ADD MLOAD DUP2 DUP5 ADD MSTORE PUSH1 0x20 DUP2 ADD SWAP1 POP PUSH3 0x6B3 JUMP JUMPDEST PUSH1 0x0 DUP5 DUP5 ADD MSTORE POP POP POP POP JUMP JUMPDEST PUSH1 0x0 PUSH1 0x1F NOT PUSH1 0x1F DUP4 ADD AND SWAP1 POP SWAP2 SWAP1 POP JUMP JUMPDEST PUSH1 0x0 PUSH3 0x6FA DUP3 PUSH3 0x270 JUMP JUMPDEST PUSH3 0x706 DUP2 DUP6 PUSH3 0x69F JUMP JUMPDEST SWAP4 POP PUSH3 0x718 DUP2 DUP6 PUSH1 0x20 DUP7 ADD PUSH3 0x6B0 JUMP JUMPDEST PUSH3 0x723 DUP2 PUSH3 0x6DC JUMP JUMPDEST DUP5 ADD SWAP2 POP POP SWAP3 SWAP2 POP POP JUMP JUMPDEST PUSH1 0x0 PUSH1 0x20 DUP3 ADD SWAP1 POP DUP2 DUP2 SUB PUSH1 0x0 DUP4 ADD MSTORE PUSH3 0x74A DUP2 DUP5 PUSH3 0x6ED JUMP JUMPDEST SWAP1 POP SWAP3 SWAP2 POP POP JUMP JUMPDEST PUSH1 0x0 DUP2 MLOAD SWAP1 POP SWAP2 SWAP1 POP JUMP JUMPDEST PUSH1 0x0 DUP2 SWAP1 POP PUSH1 0x20 DUP3 ADD SWAP1 POP SWAP2 SWAP1 POP JUMP JUMPDEST PUSH1 0x0 PUSH3 0x77B DUP3 MLOAD PUSH3 0x5D1 JUMP JUMPDEST DUP1 SWAP2 POP POP SWAP2 SWAP1 POP JUMP JUMPDEST PUSH1 0x0 PUSH3 0x791 DUP3 PUSH3 0x752 JUMP JUMPDEST DUP3 PUSH3 0x79D DUP5 PUSH3 0x75D JUMP JUMPDEST SWAP1 POP PUSH3 0x7AA DUP2 PUSH3 0x76D JUMP JUMPDEST SWAP3 POP PUSH1 0x20 DUP3 LT ISZERO PUSH3 0x7ED JUMPI PUSH3 0x7E8 PUSH32 0xFFFFFFFFFFFFFFFFFFFFFFFFFFFFFFFFFFFFFFFFFFFFFFFFFFFFFFFFFFFFFFFF DUP4 PUSH1 0x20 SUB PUSH1 0x8 MUL PUSH3 0x333 JUMP JUMPDEST DUP4 AND SWAP3 POP JUMPDEST POP POP SWAP2 SWAP1 POP JUMP JUMPDEST PUSH1 0x80 MLOAD PUSH1 0xA0 MLOAD PUSH1 0xC0 MLOAD PUSH1 0xE0 MLOAD PUSH2 0x100 MLOAD PUSH2 0x120 MLOAD PUSH2 0x140 MLOAD PUSH2 0x1AA9 PUSH3 0x84F PUSH1 0x0 CODECOPY PUSH1 0x0 PUSH2 0x3B3 ADD MSTORE PUSH1 0x0 PUSH2 0x37F ADD MSTORE PUSH1 0x0 PUSH2 0xB5D ADD MSTORE PUSH1 0x0 PUSH2 0xB3C ADD MSTORE PUSH1 0x0 PUSH2 0x7F8 ADD MSTORE PUSH1 0x0 PUSH2 0x84E ADD MSTORE PUSH1 0x0 PUSH2 0x877 ADD MSTORE PUSH2 0x1AA9 PUSH1 0x0 RETURN INVALID PUSH1 0x80 PUSH1 0x40 MSTORE CALLVALUE DUP1 ISZERO PUSH2 0x10 JUMPI PUSH1 0x0 DUP1 REVERT JUMPDEST POP PUSH1 0x4 CALLDATASIZE LT PUSH2 0x57 JUMPI PUSH1 0x0 CALLDATALOAD PUSH1 0xE0 SHR DUP1 PUSH4 0x22DAE16C EQ PUSH2 0x5C JUMPI DUP1 PUSH4 0x5232F0D7 EQ PUSH2 0x8D JUMPI DUP1 PUSH4 0x84B0196E EQ PUSH2 0xBE JUMPI DUP1 PUSH4 0xBBBFE446 EQ PUSH2 0xE2 JUMPI DUP1 PUSH4 0xF4034A96 EQ PUSH2 0x112 JUMPI JUMPDEST PUSH1 0x0 DUP1 REVERT JUMPDEST PUSH2 0x76 PUSH1 0x4 DUP1 CALLDATASIZE SUB DUP2 ADD SWAP1 PUSH2 0x71 SWAP2 SWAP1 PUSH2 0xE19 JUMP JUMPDEST PUSH2 0x142 JUMP JUMPDEST PUSH1 0x40 MLOAD PUSH2 0x84 SWAP3 SWAP2 SWAP1 PUSH2 0xFA4 JUMP JUMPDEST PUSH1 0x40 MLOAD DUP1 SWAP2 SUB SWAP1 RETURN JUMPDEST PUSH2 0xA7 PUSH1 0x4 DUP1 CALLDATASIZE SUB DUP2 ADD SWAP1 PUSH2 0xA2 SWAP2 SWAP1 PUSH2 0xFD4 JUMP JUMPDEST PUSH2 0x30B JUMP JUMPDEST PUSH1 0x40 MLOAD PUSH2 0xB5 SWAP3 SWAP2 SWAP1 PUSH2 0xFA4 JUMP JUMPDEST PUSH1 0x40 MLOAD DUP1 SWAP2 SUB SWAP1 RETURN JUMPDEST PUSH2 0xC6 PUSH2 0x36C JUMP JUMPDEST PUSH1 0x40 MLOAD PUSH2 0xD9 SWAP8 SWAP7 SWAP6 SWAP5 SWAP4 SWAP3 SWAP2 SWAP1 PUSH2 0x1191 JUMP JUMPDEST PUSH1 0x40 MLOAD DUP1 SWAP2 SUB SWAP1 RETURN JUMPDEST PUSH2 0xFC PUSH1 0x4 DUP1 CALLDATASIZE SUB DUP2 ADD SWAP1 PUSH2 0xF7 SWAP2 SWAP1 PUSH2 0x1239 JUMP JUMPDEST PUSH2 0x46E JUMP JUMPDEST PUSH1 0x40 MLOAD PUSH2 0x109 SWAP2 SWAP1 PUSH2 0x12D0 JUMP JUMPDEST PUSH1 0x40 MLOAD DUP1 SWAP2 SUB SWAP1 RETURN JUMPDEST PUSH2 0x12C PUSH1 0x4 DUP1 CALLDATASIZE SUB DUP2 ADD SWAP1 PUSH2 0x127 SWAP2 SWAP1 PUSH2 0x12EB JUMP JUMPDEST PUSH2 0x604 JUMP JUMPDEST PUSH1 0x40 MLOAD PUSH2 0x139 SWAP2 SWAP1 PUSH2 0x1318 JUMP JUMPDEST PUSH1 0x40 MLOAD DUP1 SWAP2 SUB SWAP1 RETURN JUMPDEST PUSH2 0x14A PUSH2 0xCDF JUMP JUMPDEST PUSH1 0x0 PUSH1 0x2 PUSH1 0x0 DUP8 PUSH20 0xFFFFFFFFFFFFFFFFFFFFFFFFFFFFFFFFFFFFFFFF AND PUSH20 0xFFFFFFFFFFFFFFFFFFFFFFFFFFFFFFFFFFFFFFFF AND DUP2 MSTORE PUSH1 0x20 ADD SWAP1 DUP2 MSTORE PUSH1 0x20 ADD PUSH1 0x0 KECCAK256 SLOAD DUP4 LT ISZERO PUSH2 0x211 JUMPI DUP3 PUSH1 0x2 PUSH1 0x0 DUP9 PUSH20 0xFFFFFFFFFFFFFFFFFFFFFFFFFFFFFFFFFFFFFFFF AND PUSH20 0xFFFFFFFFFFFFFFFFFFFFFFFFFFFFFFFFFFFFFFFF AND DUP2 MSTORE PUSH1 0x20 ADD SWAP1 DUP2 MSTORE PUSH1 0x20 ADD PUSH1 0x0 KECCAK256 SLOAD PUSH1 0x40 MLOAD PUSH32 0x45F356C00000000000000000000000000000000000000000000000000000000 DUP2 MSTORE PUSH1 0x4 ADD PUSH2 0x208 SWAP3 SWAP2 SWAP1 PUSH2 0x1333 JUMP JUMPDEST PUSH1 0x40 MLOAD DUP1 SWAP2 SUB SWAP1 REVERT JUMPDEST PUSH1 0x0 PUSH1 0x40 MLOAD DUP1 PUSH1 0x60 ADD PUSH1 0x40 MSTORE DUP1 DUP9 PUSH20 0xFFFFFFFFFFFFFFFFFFFFFFFFFFFFFFFFFFFFFFFF AND DUP2 MSTORE PUSH1 0x20 ADD DUP6 DUP2 MSTORE PUSH1 0x20 ADD DUP8 DUP8 DUP1 DUP1 PUSH1 0x1F ADD PUSH1 0x20 DUP1 SWAP2 DIV MUL PUSH1 0x20 ADD PUSH1 0x40 MLOAD SWAP1 DUP2 ADD PUSH1 0x40 MSTORE DUP1 SWAP4 SWAP3 SWAP2 SWAP1 DUP2 DUP2 MSTORE PUSH1 0x20 ADD DUP4 DUP4 DUP1 DUP3 DUP5 CALLDATACOPY PUSH1 0x0 DUP2 DUP5 ADD MSTORE PUSH1 0x1F NOT PUSH1 0x1F DUP3 ADD AND SWAP1 POP DUP1 DUP4 ADD SWAP3 POP POP POP POP POP POP POP DUP2 MSTORE POP SWAP1 POP PUSH1 0x0 PUSH2 0x2F8 PUSH32 0x2C521D146A6F6C09462CB178367B028F1718B1F01D7995BB405DAE702C2BEE7D DUP10 DUP8 DUP11 DUP11 PUSH1 0x40 MLOAD PUSH2 0x2C2 SWAP3 SWAP2 SWAP1 PUSH2 0x139B JUMP JUMPDEST PUSH1 0x40 MLOAD DUP1 SWAP2 SUB SWAP1 KECCAK256 PUSH1 0x40 MLOAD PUSH1 0x20 ADD PUSH2 0x2DD SWAP5 SWAP4 SWAP3 SWAP2 SWAP1 PUSH2 0x13B4 JUMP JUMPDEST PUSH1 0x40 MLOAD PUSH1 0x20 DUP2 DUP4 SUB SUB DUP2 MSTORE SWAP1 PUSH1 0x40 MSTORE DUP1 MLOAD SWAP1 PUSH1 0x20 ADD KECCAK256 PUSH2 0x69B JUMP JUMPDEST SWAP1 POP DUP2 DUP2 SWAP4 POP SWAP4 POP POP POP SWAP5 POP SWAP5 SWAP3 POP POP POP JUMP JUMPDEST PUSH2 0x313 PUSH2 0xCDF JUMP JUMPDEST PUSH1 0x0 PUSH2 0x360 DUP6 DUP6 DUP6 PUSH1 0x2 PUSH1 0x0 DUP11 PUSH20 0xFFFFFFFFFFFFFFFFFFFFFFFFFFFFFFFFFFFFFFFF AND PUSH20 0xFFFFFFFFFFFFFFFFFFFFFFFFFFFFFFFFFFFFFFFF AND DUP2 MSTORE PUSH1 0x20 ADD SWAP1 DUP2 MSTORE PUSH1 0x20 ADD PUSH1 0x0 KECCAK256 SLOAD PUSH2 0x142 JUMP JUMPDEST SWAP2 POP SWAP2 POP SWAP4 POP SWAP4 SWAP2 POP POP JUMP JUMPDEST PUSH1 0x0 PUSH1 0x60 DUP1 PUSH1 0x0 DUP1 PUSH1 0x0 PUSH1 0x60 PUSH2 0x3AC PUSH1 0x0 PUSH32 0x0 PUSH2 0x6B5 SWAP1 SWAP2 SWAP1 PUSH4 0xFFFFFFFF AND JUMP JUMPDEST PUSH2 0x3E0 PUSH1 0x1 PUSH32 0x0 PUSH2 0x6B5 SWAP1 SWAP2 SWAP1 PUSH4 0xFFFFFFFF AND JUMP JUMPDEST CHAINID ADDRESS PUSH1 0x0 DUP1 SHL PUSH1 0x0 PUSH8 0xFFFFFFFFFFFFFFFF DUP2 GT ISZERO PUSH2 0x401 JUMPI PUSH2 0x400 PUSH2 0x13F9 JUMP JUMPDEST JUMPDEST PUSH1 0x40 MLOAD SWAP1 DUP1 DUP3 MSTORE DUP1 PUSH1 0x20 MUL PUSH1 0x20 ADD DUP3 ADD PUSH1 0x40 MSTORE DUP1 ISZERO PUSH2 0x42F JUMPI DUP2 PUSH1 0x20 ADD PUSH1 0x20 DUP3 MUL DUP1 CALLDATASIZE DUP4 CALLDATACOPY DUP1 DUP3 ADD SWAP2 POP POP SWAP1 POP JUMPDEST POP PUSH32 0xF00000000000000000000000000000000000000000000000000000000000000 SWAP6 SWAP5 SWAP4 SWAP3 SWAP2 SWAP1 SWAP7 POP SWAP7 POP SWAP7 POP SWAP7 POP SWAP7 POP SWAP7 POP SWAP7 POP SWAP1 SWAP2 SWAP3 SWAP4 SWAP5 SWAP6 SWAP7 JUMP JUMPDEST PUSH1 0x0 DUP1 PUSH2 0x557 DUP5 DUP5 DUP1 DUP1 PUSH1 0x1F ADD PUSH1 0x20 DUP1 SWAP2 DIV MUL PUSH1 0x20 ADD PUSH1 0x40 MLOAD SWAP1 DUP2 ADD PUSH1 0x40 MSTORE DUP1 SWAP4 SWAP3 SWAP2 SWAP1 DUP2 DUP2 MSTORE PUSH1 0x20 ADD DUP4 DUP4 DUP1 DUP3 DUP5 CALLDATACOPY PUSH1 0x0 DUP2 DUP5 ADD MSTORE PUSH1 0x1F NOT PUSH1 0x1F DUP3 ADD AND SWAP1 POP DUP1 DUP4 ADD SWAP3 POP POP POP POP POP POP POP PUSH2 0x549 PUSH32 0x2C521D146A6F6C09462CB178367B028F1718B1F01D7995BB405DAE702C2BEE7D DUP9 PUSH1 0x0 ADD PUSH1 0x20 DUP2 ADD SWAP1 PUSH2 0x4F0 SWAP2 SWAP1 PUSH2 0x12EB JUMP JUMPDEST DUP10 PUSH1 0x20 ADD CALLDATALOAD DUP11 DUP1 PUSH1 0x40 ADD SWAP1 PUSH2 0x505 SWAP2 SWAP1 PUSH2 0x1437 JUMP JUMPDEST PUSH1 0x40 MLOAD PUSH2 0x513 SWAP3 SWAP2 SWAP1 PUSH2 0x139B JUMP JUMPDEST PUSH1 0x40 MLOAD DUP1 SWAP2 SUB SWAP1 KECCAK256 PUSH1 0x40 MLOAD PUSH1 0x20 ADD PUSH2 0x52E SWAP5 SWAP4 SWAP3 SWAP2 SWAP1 PUSH2 0x13B4 JUMP JUMPDEST PUSH1 0x40 MLOAD PUSH1 0x20 DUP2 DUP4 SUB SUB DUP2 MSTORE SWAP1 PUSH1 0x40 MSTORE DUP1 MLOAD SWAP1 PUSH1 0x20 ADD KECCAK256 PUSH2 0x69B JUMP JUMPDEST PUSH2 0x765 SWAP1 SWAP2 SWAP1 PUSH4 0xFFFFFFFF AND JUMP JUMPDEST SWAP1 POP DUP5 PUSH1 0x20 ADD CALLDATALOAD PUSH1 0x2 PUSH1 0x0 DUP8 PUSH1 0x0 ADD PUSH1 0x20 DUP2 ADD SWAP1 PUSH2 0x575 SWAP2 SWAP1 PUSH2 0x12EB JUMP JUMPDEST PUSH20 0xFFFFFFFFFFFFFFFFFFFFFFFFFFFFFFFFFFFFFFFF AND PUSH20 0xFFFFFFFFFFFFFFFFFFFFFFFFFFFFFFFFFFFFFFFF AND DUP2 MSTORE PUSH1 0x20 ADD SWAP1 DUP2 MSTORE PUSH1 0x20 ADD PUSH1 0x0 KECCAK256 SLOAD EQ DUP1 ISZERO PUSH2 0x5FA JUMPI POP DUP5 PUSH1 0x0 ADD PUSH1 0x20 DUP2 ADD SWAP1 PUSH2 0x5CB SWAP2 SWAP1 PUSH2 0x12EB JUMP JUMPDEST PUSH20 0xFFFFFFFFFFFFFFFFFFFFFFFFFFFFFFFFFFFFFFFF AND DUP2 PUSH20 0xFFFFFFFFFFFFFFFFFFFFFFFFFFFFFFFFFFFFFFFF AND EQ JUMPDEST SWAP2 POP POP SWAP4 SWAP3 POP POP POP JUMP JUMPDEST PUSH1 0x0 PUSH1 0x2 PUSH1 0x0 DUP4 PUSH20 0xFFFFFFFFFFFFFFFFFFFFFFFFFFFFFFFFFFFFFFFF AND PUSH20 0xFFFFFFFFFFFFFFFFFFFFFFFFFFFFFFFFFFFFFFFF AND DUP2 MSTORE PUSH1 0x20 ADD SWAP1 DUP2 MSTORE PUSH1 0x20 ADD PUSH1 0x0 KECCAK256 SLOAD SWAP1 POP SWAP2 SWAP1 POP JUMP JUMPDEST PUSH1 0x0 PUSH1 0x20 DUP4 MLOAD LT ISZERO PUSH2 0x669 JUMPI PUSH2 0x662 DUP4 PUSH2 0x78C JUMP JUMPDEST SWAP1 POP PUSH2 0x68B JUMP JUMPDEST DUP3 PUSH2 0x673 DUP4 PUSH2 0x691 JUMP JUMPDEST PUSH1 0x0 ADD SWAP1 DUP2 PUSH2 0x682 SWAP2 SWAP1 PUSH2 0x16A6 JUMP JUMPDEST POP PUSH1 0xFF PUSH1 0x0 SHL SWAP1 POP JUMPDEST SWAP3 SWAP2 POP POP JUMP JUMPDEST PUSH1 0x0 DUP2 SWAP1 POP SWAP2 SWAP1 POP JUMP JUMPDEST PUSH1 0x0 PUSH2 0x6AE PUSH2 0x6A8 PUSH2 0x7F4 JUMP JUMPDEST DUP4 PUSH2 0x8AB JUMP JUMPDEST SWAP1 POP SWAP2 SWAP1 POP JUMP JUMPDEST PUSH1 0x60 PUSH1 0xFF PUSH1 0x0 SHL DUP4 EQ PUSH2 0x6D2 JUMPI PUSH2 0x6CB DUP4 PUSH2 0x8EC JUMP JUMPDEST SWAP1 POP PUSH2 0x75F JUMP JUMPDEST DUP2 DUP1 SLOAD PUSH2 0x6DE SWAP1 PUSH2 0x14C9 JUMP JUMPDEST DUP1 PUSH1 0x1F ADD PUSH1 0x20 DUP1 SWAP2 DIV MUL PUSH1 0x20 ADD PUSH1 0x40 MLOAD SWAP1 DUP2 ADD PUSH1 0x40 MSTORE DUP1 SWAP3 SWAP2 SWAP1 DUP2 DUP2 MSTORE PUSH1 0x20 ADD DUP3 DUP1 SLOAD PUSH2 0x70A SWAP1 PUSH2 0x14C9 JUMP JUMPDEST DUP1 ISZERO PUSH2 0x757 JUMPI DUP1 PUSH1 0x1F LT PUSH2 0x72C JUMPI PUSH2 0x100 DUP1 DUP4 SLOAD DIV MUL DUP4 MSTORE SWAP2 PUSH1 0x20 ADD SWAP2 PUSH2 0x757 JUMP JUMPDEST DUP3 ADD SWAP2 SWAP1 PUSH1 0x0 MSTORE PUSH1 0x20 PUSH1 0x0 KECCAK256 SWAP1 JUMPDEST DUP2 SLOAD DUP2 MSTORE SWAP1 PUSH1 0x1 ADD SWAP1 PUSH1 0x20 ADD DUP1 DUP4 GT PUSH2 0x73A JUMPI DUP3 SWAP1 SUB PUSH1 0x1F AND DUP3 ADD SWAP2 JUMPDEST POP POP POP POP POP SWAP1 POP JUMPDEST SWAP3 SWAP2 POP POP JUMP JUMPDEST PUSH1 0x0 DUP1 PUSH1 0x0 PUSH2 0x774 DUP6 DUP6 PUSH2 0x960 JUMP JUMPDEST SWAP2 POP SWAP2 POP PUSH2 0x781 DUP2 PUSH2 0x9B1 JUMP JUMPDEST DUP2 SWAP3 POP POP POP SWAP3 SWAP2 POP POP JUMP JUMPDEST PUSH1 0x0 DUP1 DUP3 SWAP1 POP PUSH1 0x1F DUP2 MLOAD GT ISZERO PUSH2 0x7D9 JUMPI DUP3 PUSH1 0x40 MLOAD PUSH32 0x305A27A900000000000000000000000000000000000000000000000000000000 DUP2 MSTORE PUSH1 0x4 ADD PUSH2 0x7D0 SWAP2 SWAP1 PUSH2 0x1778 JUMP JUMPDEST PUSH1 0x40 MLOAD DUP1 SWAP2 SUB SWAP1 REVERT JUMPDEST DUP1 MLOAD DUP2 PUSH2 0x7E5 SWAP1 PUSH2 0x17BF JUMP JUMPDEST PUSH1 0x0 SHR OR PUSH1 0x0 SHL SWAP2 POP POP SWAP2 SWAP1 POP JUMP JUMPDEST PUSH1 0x0 PUSH32 0x0 PUSH20 0xFFFFFFFFFFFFFFFFFFFFFFFFFFFFFFFFFFFFFFFF AND ADDRESS PUSH20 0xFFFFFFFFFFFFFFFFFFFFFFFFFFFFFFFFFFFFFFFF AND EQ DUP1 ISZERO PUSH2 0x870 JUMPI POP PUSH32 0x0 CHAINID EQ JUMPDEST ISZERO PUSH2 0x89D JUMPI PUSH32 0x0 SWAP1 POP PUSH2 0x8A8 JUMP JUMPDEST PUSH2 0x8A5 PUSH2 0xB17 JUMP JUMPDEST SWAP1 POP JUMPDEST SWAP1 JUMP JUMPDEST PUSH1 0x0 PUSH1 0x40 MLOAD PUSH32 0x1901000000000000000000000000000000000000000000000000000000000000 DUP2 MSTORE DUP4 PUSH1 0x2 DUP3 ADD MSTORE DUP3 PUSH1 0x22 DUP3 ADD MSTORE PUSH1 0x42 DUP2 KECCAK256 SWAP2 POP POP SWAP3 SWAP2 POP POP JUMP JUMPDEST PUSH1 0x60 PUSH1 0x0 PUSH2 0x8F9 DUP4 PUSH2 0xBAD JUMP JUMPDEST SWAP1 POP PUSH1 0x0 PUSH1 0x20 PUSH8 0xFFFFFFFFFFFFFFFF DUP2 GT ISZERO PUSH2 0x918 JUMPI PUSH2 0x917 PUSH2 0x13F9 JUMP JUMPDEST JUMPDEST PUSH1 0x40 MLOAD SWAP1 DUP1 DUP3 MSTORE DUP1 PUSH1 0x1F ADD PUSH1 0x1F NOT AND PUSH1 0x20 ADD DUP3 ADD PUSH1 0x40 MSTORE DUP1 ISZERO PUSH2 0x94A JUMPI DUP2 PUSH1 0x20 ADD PUSH1 0x1 DUP3 MUL DUP1 CALLDATASIZE DUP4 CALLDATACOPY DUP1 DUP3 ADD SWAP2 POP POP SWAP1 POP JUMPDEST POP SWAP1 POP DUP2 DUP2 MSTORE DUP4 PUSH1 0x20 DUP3 ADD MSTORE DUP1 SWAP3 POP POP POP SWAP2 SWAP1 POP JUMP JUMPDEST PUSH1 0x0 DUP1 PUSH1 0x41 DUP4 MLOAD SUB PUSH2 0x9A1 JUMPI PUSH1 0x0 DUP1 PUSH1 0x0 PUSH1 0x20 DUP7 ADD MLOAD SWAP3 POP PUSH1 0x40 DUP7 ADD MLOAD SWAP2 POP PUSH1 0x60 DUP7 ADD MLOAD PUSH1 0x0 BYTE SWAP1 POP PUSH2 0x995 DUP8 DUP3 DUP6 DUP6 PUSH2 0xBFD JUMP JUMPDEST SWAP5 POP SWAP5 POP POP POP POP PUSH2 0x9AA JUMP JUMPDEST PUSH1 0x0 PUSH1 0x2 SWAP2 POP SWAP2 POP JUMPDEST SWAP3 POP SWAP3 SWAP1 POP JUMP JUMPDEST PUSH1 0x0 PUSH1 0x4 DUP2 GT ISZERO PUSH2 0x9C5 JUMPI PUSH2 0x9C4 PUSH2 0x1826 JUMP JUMPDEST JUMPDEST DUP2 PUSH1 0x4 DUP2 GT ISZERO PUSH2 0x9D8 JUMPI PUSH2 0x9D7 PUSH2 0x1826 JUMP JUMPDEST JUMPDEST SUB ISZERO PUSH2 0xB14 JUMPI PUSH1 0x1 PUSH1 0x4 DUP2 GT ISZERO PUSH2 0x9F2 JUMPI PUSH2 0x9F1 PUSH2 0x1826 JUMP JUMPDEST JUMPDEST DUP2 PUSH1 0x4 DUP2 GT ISZERO PUSH2 0xA05 JUMPI PUSH2 0xA04 PUSH2 0x1826 JUMP JUMPDEST JUMPDEST SUB PUSH2 0xA45 JUMPI PUSH1 0x40 MLOAD PUSH32 0x8C379A000000000000000000000000000000000000000000000000000000000 DUP2 MSTORE PUSH1 0x4 ADD PUSH2 0xA3C SWAP1 PUSH2 0x18A1 JUMP JUMPDEST PUSH1 0x40 MLOAD DUP1 SWAP2 SUB SWAP1 REVERT JUMPDEST PUSH1 0x2 PUSH1 0x4 DUP2 GT ISZERO PUSH2 0xA59 JUMPI PUSH2 0xA58 PUSH2 0x1826 JUMP JUMPDEST JUMPDEST DUP2 PUSH1 0x4 DUP2 GT ISZERO PUSH2 0xA6C JUMPI PUSH2 0xA6B PUSH2 0x1826 JUMP JUMPDEST JUMPDEST SUB PUSH2 0xAAC JUMPI PUSH1 0x40 MLOAD PUSH32 0x8C379A000000000000000000000000000000000000000000000000000000000 DUP2 MSTORE PUSH1 0x4 ADD PUSH2 0xAA3 SWAP1 PUSH2 0x190D JUMP JUMPDEST PUSH1 0x40 MLOAD DUP1 SWAP2 SUB SWAP1 REVERT JUMPDEST PUSH1 0x3 PUSH1 0x4 DUP2 GT ISZERO PUSH2 0xAC0 JUMPI PUSH2 0xABF PUSH2 0x1826 JUMP JUMPDEST JUMPDEST DUP2 PUSH1 0x4 DUP2 GT ISZERO PUSH2 0xAD3 JUMPI PUSH2 0xAD2 PUSH2 0x1826 JUMP JUMPDEST JUMPDEST SUB PUSH2 0xB13 JUMPI PUSH1 0x40 MLOAD PUSH32 0x8C379A000000000000000000000000000000000000000000000000000000000 DUP2 MSTORE PUSH1 0x4 ADD PUSH2 0xB0A SWAP1 PUSH2 0x199F JUMP JUMPDEST PUSH1 0x40 MLOAD DUP1 SWAP2 SUB SWAP1 REVERT JUMPDEST JUMPDEST POP JUMP JUMPDEST PUSH1 0x0 PUSH32 0x8B73C3C69BB8FE3D512ECC4CF759CC79239F7B179B0FFACAA9A75D522B39400F PUSH32 0x0 PUSH32 0x0 CHAINID ADDRESS PUSH1 0x40 MLOAD PUSH1 0x20 ADD PUSH2 0xB92 SWAP6 SWAP5 SWAP4 SWAP3 SWAP2 SWAP1 PUSH2 0x19BF JUMP JUMPDEST PUSH1 0x40 MLOAD PUSH1 0x20 DUP2 DUP4 SUB SUB DUP2 MSTORE SWAP1 PUSH1 0x40 MSTORE DUP1 MLOAD SWAP1 PUSH1 0x20 ADD KECCAK256 SWAP1 POP SWAP1 JUMP JUMPDEST PUSH1 0x0 DUP1 PUSH1 0xFF DUP4 PUSH1 0x0 SHR AND SWAP1 POP PUSH1 0x1F DUP2 GT ISZERO PUSH2 0xBF4 JUMPI PUSH1 0x40 MLOAD PUSH32 0xB3512B0C00000000000000000000000000000000000000000000000000000000 DUP2 MSTORE PUSH1 0x4 ADD PUSH1 0x40 MLOAD DUP1 SWAP2 SUB SWAP1 REVERT JUMPDEST DUP1 SWAP2 POP POP SWAP2 SWAP1 POP JUMP JUMPDEST PUSH1 0x0 DUP1 PUSH32 0x7FFFFFFFFFFFFFFFFFFFFFFFFFFFFFFF5D576E7357A4501DDFE92F46681B20A0 DUP4 PUSH1 0x0 SHR GT ISZERO PUSH2 0xC38 JUMPI PUSH1 0x0 PUSH1 0x3 SWAP2 POP SWAP2 POP PUSH2 0xCD6 JUMP JUMPDEST PUSH1 0x0 PUSH1 0x1 DUP8 DUP8 DUP8 DUP8 PUSH1 0x40 MLOAD PUSH1 0x0 DUP2 MSTORE PUSH1 0x20 ADD PUSH1 0x40 MSTORE PUSH1 0x40 MLOAD PUSH2 0xC5D SWAP5 SWAP4 SWAP3 SWAP2 SWAP1 PUSH2 0x1A2E JUMP JUMPDEST PUSH1 0x20 PUSH1 0x40 MLOAD PUSH1 0x20 DUP2 SUB SWAP1 DUP1 DUP5 SUB SWAP1 DUP6 GAS STATICCALL ISZERO DUP1 ISZERO PUSH2 0xC7F JUMPI RETURNDATASIZE PUSH1 0x0 DUP1 RETURNDATACOPY RETURNDATASIZE PUSH1 0x0 REVERT JUMPDEST POP POP POP PUSH1 0x20 PUSH1 0x40 MLOAD SUB MLOAD SWAP1 POP PUSH1 0x0 PUSH20 0xFFFFFFFFFFFFFFFFFFFFFFFFFFFFFFFFFFFFFFFF AND DUP2 PUSH20 0xFFFFFFFFFFFFFFFFFFFFFFFFFFFFFFFFFFFFFFFF AND SUB PUSH2 0xCCD JUMPI PUSH1 0x0 PUSH1 0x1 SWAP3 POP SWAP3 POP POP PUSH2 0xCD6 JUMP JUMPDEST DUP1 PUSH1 0x0 SWAP3 POP SWAP3 POP POP JUMPDEST SWAP5 POP SWAP5 SWAP3 POP POP POP JUMP JUMPDEST PUSH1 0x40 MLOAD DUP1 PUSH1 0x60 ADD PUSH1 0x40 MSTORE DUP1 PUSH1 0x0 PUSH20 0xFFFFFFFFFFFFFFFFFFFFFFFFFFFFFFFFFFFFFFFF AND DUP2 MSTORE PUSH1 0x20 ADD PUSH1 0x0 DUP2 MSTORE PUSH1 0x20 ADD PUSH1 0x60 DUP2 MSTORE POP SWAP1 JUMP JUMPDEST PUSH1 0x0 DUP1 REVERT JUMPDEST PUSH1 0x0 DUP1 REVERT JUMPDEST PUSH1 0x0 PUSH20 0xFFFFFFFFFFFFFFFFFFFFFFFFFFFFFFFFFFFFFFFF DUP3 AND SWAP1 POP SWAP2 SWAP1 POP JUMP JUMPDEST PUSH1 0x0 PUSH2 0xD4B DUP3 PUSH2 0xD20 JUMP JUMPDEST SWAP1 POP SWAP2 SWAP1 POP JUMP JUMPDEST PUSH2 0xD5B DUP2 PUSH2 0xD40 JUMP JUMPDEST DUP2 EQ PUSH2 0xD66 JUMPI PUSH1 0x0 DUP1 REVERT JUMPDEST POP JUMP JUMPDEST PUSH1 0x0 DUP2 CALLDATALOAD SWAP1 POP PUSH2 0xD78 DUP2 PUSH2 0xD52 JUMP JUMPDEST SWAP3 SWAP2 POP POP JUMP JUMPDEST PUSH1 0x0 DUP1 REVERT JUMPDEST PUSH1 0x0 DUP1 REVERT JUMPDEST PUSH1 0x0 DUP1 REVERT JUMPDEST PUSH1 0x0 DUP1 DUP4 PUSH1 0x1F DUP5 ADD SLT PUSH2 0xDA3 JUMPI PUSH2 0xDA2 PUSH2 0xD7E JUMP JUMPDEST JUMPDEST DUP3 CALLDATALOAD SWAP1 POP PUSH8 0xFFFFFFFFFFFFFFFF DUP2 GT ISZERO PUSH2 0xDC0 JUMPI PUSH2 0xDBF PUSH2 0xD83 JUMP JUMPDEST JUMPDEST PUSH1 0x20 DUP4 ADD SWAP2 POP DUP4 PUSH1 0x1 DUP3 MUL DUP4 ADD GT ISZERO PUSH2 0xDDC JUMPI PUSH2 0xDDB PUSH2 0xD88 JUMP JUMPDEST JUMPDEST SWAP3 POP SWAP3 SWAP1 POP JUMP JUMPDEST PUSH1 0x0 DUP2 SWAP1 POP SWAP2 SWAP1 POP JUMP JUMPDEST PUSH2 0xDF6 DUP2 PUSH2 0xDE3 JUMP JUMPDEST DUP2 EQ PUSH2 0xE01 JUMPI PUSH1 0x0 DUP1 REVERT JUMPDEST POP JUMP JUMPDEST PUSH1 0x0 DUP2 CALLDATALOAD SWAP1 POP PUSH2 0xE13 DUP2 PUSH2 0xDED JUMP JUMPDEST SWAP3 SWAP2 POP POP JUMP JUMPDEST PUSH1 0x0 DUP1 PUSH1 0x0 DUP1 PUSH1 0x60 DUP6 DUP8 SUB SLT ISZERO PUSH2 0xE33 JUMPI PUSH2 0xE32 PUSH2 0xD16 JUMP JUMPDEST JUMPDEST PUSH1 0x0 PUSH2 0xE41 DUP8 DUP3 DUP9 ADD PUSH2 0xD69 JUMP JUMPDEST SWAP5 POP POP PUSH1 0x20 DUP6 ADD CALLDATALOAD PUSH8 0xFFFFFFFFFFFFFFFF DUP2 GT ISZERO PUSH2 0xE62 JUMPI PUSH2 0xE61 PUSH2 0xD1B JUMP JUMPDEST JUMPDEST PUSH2 0xE6E DUP8 DUP3 DUP9 ADD PUSH2 0xD8D JUMP JUMPDEST SWAP4 POP SWAP4 POP POP PUSH1 0x40 PUSH2 0xE81 DUP8 DUP3 DUP9 ADD PUSH2 0xE04 JUMP JUMPDEST SWAP2 POP POP SWAP3 SWAP6 SWAP2 SWAP5 POP SWAP3 POP JUMP JUMPDEST PUSH2 0xE96 DUP2 PUSH2 0xD40 JUMP JUMPDEST DUP3 MSTORE POP POP JUMP JUMPDEST PUSH2 0xEA5 DUP2 PUSH2 0xDE3 JUMP JUMPDEST DUP3 MSTORE POP POP JUMP JUMPDEST PUSH1 0x0 DUP2 MLOAD SWAP1 POP SWAP2 SWAP1 POP JUMP JUMPDEST PUSH1 0x0 DUP3 DUP3 MSTORE PUSH1 0x20 DUP3 ADD SWAP1 POP SWAP3 SWAP2 POP POP JUMP JUMPDEST PUSH1 0x0 JUMPDEST DUP4 DUP2 LT ISZERO PUSH2 0xEE5 JUMPI DUP1 DUP3 ADD MLOAD DUP2 DUP5 ADD MSTORE PUSH1 0x20 DUP2 ADD SWAP1 POP PUSH2 0xECA JUMP JUMPDEST PUSH1 0x0 DUP5 DUP5 ADD MSTORE POP POP POP POP JUMP JUMPDEST PUSH1 0x0 PUSH1 0x1F NOT PUSH1 0x1F DUP4 ADD AND SWAP1 POP SWAP2 SWAP1 POP JUMP JUMPDEST PUSH1 0x0 PUSH2 0xF0D DUP3 PUSH2 0xEAB JUMP JUMPDEST PUSH2 0xF17 DUP2 DUP6 PUSH2 0xEB6 JUMP JUMPDEST SWAP4 POP PUSH2 0xF27 DUP2 DUP6 PUSH1 0x20 DUP7 ADD PUSH2 0xEC7 JUMP JUMPDEST PUSH2 0xF30 DUP2 PUSH2 0xEF1 JUMP JUMPDEST DUP5 ADD SWAP2 POP POP SWAP3 SWAP2 POP POP JUMP JUMPDEST PUSH1 0x0 PUSH1 0x60 DUP4 ADD PUSH1 0x0 DUP4 ADD MLOAD PUSH2 0xF53 PUSH1 0x0 DUP7 ADD DUP3 PUSH2 0xE8D JUMP JUMPDEST POP PUSH1 0x20 DUP4 ADD MLOAD PUSH2 0xF66 PUSH1 0x20 DUP7 ADD DUP3 PUSH2 0xE9C JUMP JUMPDEST POP PUSH1 0x40 DUP4 ADD MLOAD DUP5 DUP3 SUB PUSH1 0x40 DUP7 ADD MSTORE PUSH2 0xF7E DUP3 DUP3 PUSH2 0xF02 JUMP JUMPDEST SWAP2 POP POP DUP1 SWAP2 POP POP SWAP3 SWAP2 POP POP JUMP JUMPDEST PUSH1 0x0 DUP2 SWAP1 POP SWAP2 SWAP1 POP JUMP JUMPDEST PUSH2 0xF9E DUP2 PUSH2 0xF8B JUMP JUMPDEST DUP3 MSTORE POP POP JUMP JUMPDEST PUSH1 0x0 PUSH1 0x40 DUP3 ADD SWAP1 POP DUP2 DUP2 SUB PUSH1 0x0 DUP4 ADD MSTORE PUSH2 0xFBE DUP2 DUP6 PUSH2 0xF3B JUMP JUMPDEST SWAP1 POP PUSH2 0xFCD PUSH1 0x20 DUP4 ADD DUP5 PUSH2 0xF95 JUMP JUMPDEST SWAP4 SWAP3 POP POP POP JUMP JUMPDEST PUSH1 0x0 DUP1 PUSH1 0x0 PUSH1 0x40 DUP5 DUP7 SUB SLT ISZERO PUSH2 0xFED JUMPI PUSH2 0xFEC PUSH2 0xD16 JUMP JUMPDEST JUMPDEST PUSH1 0x0 PUSH2 0xFFB DUP7 DUP3 DUP8 ADD PUSH2 0xD69 JUMP JUMPDEST SWAP4 POP POP PUSH1 0x20 DUP5 ADD CALLDATALOAD PUSH8 0xFFFFFFFFFFFFFFFF DUP2 GT ISZERO PUSH2 0x101C JUMPI PUSH2 0x101B PUSH2 0xD1B JUMP JUMPDEST JUMPDEST PUSH2 0x1028 DUP7 DUP3 DUP8 ADD PUSH2 0xD8D JUMP JUMPDEST SWAP3 POP SWAP3 POP POP SWAP3 POP SWAP3 POP SWAP3 JUMP JUMPDEST PUSH1 0x0 PUSH32 0xFF00000000000000000000000000000000000000000000000000000000000000 DUP3 AND SWAP1 POP SWAP2 SWAP1 POP JUMP JUMPDEST PUSH2 0x1069 DUP2 PUSH2 0x1034 JUMP JUMPDEST DUP3 MSTORE POP POP JUMP JUMPDEST PUSH1 0x0 DUP2 MLOAD SWAP1 POP SWAP2 SWAP1 POP JUMP JUMPDEST PUSH1 0x0 DUP3 DUP3 MSTORE PUSH1 0x20 DUP3 ADD SWAP1 POP SWAP3 SWAP2 POP POP JUMP JUMPDEST PUSH1 0x0 PUSH2 0x1096 DUP3 PUSH2 0x106F JUMP JUMPDEST PUSH2 0x10A0 DUP2 DUP6 PUSH2 0x107A JUMP JUMPDEST SWAP4 POP PUSH2 0x10B0 DUP2 DUP6 PUSH1 0x20 DUP7 ADD PUSH2 0xEC7 JUMP JUMPDEST PUSH2 0x10B9 DUP2 PUSH2 0xEF1 JUMP JUMPDEST DUP5 ADD SWAP2 POP POP SWAP3 SWAP2 POP POP JUMP JUMPDEST PUSH2 0x10CD DUP2 PUSH2 0xDE3 JUMP JUMPDEST DUP3 MSTORE POP POP JUMP JUMPDEST PUSH2 0x10DC DUP2 PUSH2 0xD40 JUMP JUMPDEST DUP3 MSTORE POP POP JUMP JUMPDEST PUSH1 0x0 DUP2 MLOAD SWAP1 POP SWAP2 SWAP1 POP JUMP JUMPDEST PUSH1 0x0 DUP3 DUP3 MSTORE PUSH1 0x20 DUP3 ADD SWAP1 POP SWAP3 SWAP2 POP POP JUMP JUMPDEST PUSH1 0x0 DUP2 SWAP1 POP PUSH1 0x20 DUP3 ADD SWAP1 POP SWAP2 SWAP1 POP JUMP JUMPDEST PUSH1 0x0 PUSH2 0x111A DUP4 DUP4 PUSH2 0xE9C JUMP JUMPDEST PUSH1 0x20 DUP4 ADD SWAP1 POP SWAP3 SWAP2 POP POP JUMP JUMPDEST PUSH1 0x0 PUSH1 0x20 DUP3 ADD SWAP1 POP SWAP2 SWAP1 POP JUMP JUMPDEST PUSH1 0x0 PUSH2 0x113E DUP3 PUSH2 0x10E2 JUMP JUMPDEST PUSH2 0x1148 DUP2 DUP6 PUSH2 0x10ED JUMP JUMPDEST SWAP4 POP PUSH2 0x1153 DUP4 PUSH2 0x10FE JUMP JUMPDEST DUP1 PUSH1 0x0 JUMPDEST DUP4 DUP2 LT ISZERO PUSH2 0x1184 JUMPI DUP2 MLOAD PUSH2 0x116B DUP9 DUP3 PUSH2 0x110E JUMP JUMPDEST SWAP8 POP PUSH2 0x1176 DUP4 PUSH2 0x1126 JUMP JUMPDEST SWAP3 POP POP PUSH1 0x1 DUP2 ADD SWAP1 POP PUSH2 0x1157 JUMP JUMPDEST POP DUP6 SWAP4 POP POP POP POP SWAP3 SWAP2 POP POP JUMP JUMPDEST PUSH1 0x0 PUSH1 0xE0 DUP3 ADD SWAP1 POP PUSH2 0x11A6 PUSH1 0x0 DUP4 ADD DUP11 PUSH2 0x1060 JUMP JUMPDEST DUP2 DUP2 SUB PUSH1 0x20 DUP4 ADD MSTORE PUSH2 0x11B8 DUP2 DUP10 PUSH2 0x108B JUMP JUMPDEST SWAP1 POP DUP2 DUP2 SUB PUSH1 0x40 DUP4 ADD MSTORE PUSH2 0x11CC DUP2 DUP9 PUSH2 0x108B JUMP JUMPDEST SWAP1 POP PUSH2 0x11DB PUSH1 0x60 DUP4 ADD DUP8 PUSH2 0x10C4 JUMP JUMPDEST PUSH2 0x11E8 PUSH1 0x80 DUP4 ADD DUP7 PUSH2 0x10D3 JUMP JUMPDEST PUSH2 0x11F5 PUSH1 0xA0 DUP4 ADD DUP6 PUSH2 0xF95 JUMP JUMPDEST DUP2 DUP2 SUB PUSH1 0xC0 DUP4 ADD MSTORE PUSH2 0x1207 DUP2 DUP5 PUSH2 0x1133 JUMP JUMPDEST SWAP1 POP SWAP9 SWAP8 POP POP POP POP POP POP POP POP JUMP JUMPDEST PUSH1 0x0 DUP1 REVERT JUMPDEST PUSH1 0x0 PUSH1 0x60 DUP3 DUP5 SUB SLT ISZERO PUSH2 0x1230 JUMPI PUSH2 0x122F PUSH2 0x1215 JUMP JUMPDEST JUMPDEST DUP2 SWAP1 POP SWAP3 SWAP2 POP POP JUMP JUMPDEST PUSH1 0x0 DUP1 PUSH1 0x0 PUSH1 0x40 DUP5 DUP7 SUB SLT ISZERO PUSH2 0x1252 JUMPI PUSH2 0x1251 PUSH2 0xD16 JUMP JUMPDEST JUMPDEST PUSH1 0x0 DUP5 ADD CALLDATALOAD PUSH8 0xFFFFFFFFFFFFFFFF DUP2 GT ISZERO PUSH2 0x1270 JUMPI PUSH2 0x126F PUSH2 0xD1B JUMP JUMPDEST JUMPDEST PUSH2 0x127C DUP7 DUP3 DUP8 ADD PUSH2 0x121A JUMP JUMPDEST SWAP4 POP POP PUSH1 0x20 DUP5 ADD CALLDATALOAD PUSH8 0xFFFFFFFFFFFFFFFF DUP2 GT ISZERO PUSH2 0x129D JUMPI PUSH2 0x129C PUSH2 0xD1B JUMP JUMPDEST JUMPDEST PUSH2 0x12A9 DUP7 DUP3 DUP8 ADD PUSH2 0xD8D JUMP JUMPDEST SWAP3 POP SWAP3 POP POP SWAP3 POP SWAP3 POP SWAP3 JUMP JUMPDEST PUSH1 0x0 DUP2 ISZERO ISZERO SWAP1 POP SWAP2 SWAP1 POP JUMP JUMPDEST PUSH2 0x12CA DUP2 PUSH2 0x12B5 JUMP JUMPDEST DUP3 MSTORE POP POP JUMP JUMPDEST PUSH1 0x0 PUSH1 0x20 DUP3 ADD SWAP1 POP PUSH2 0x12E5 PUSH1 0x0 DUP4 ADD DUP5 PUSH2 0x12C1 JUMP JUMPDEST SWAP3 SWAP2 POP POP JUMP JUMPDEST PUSH1 0x0 PUSH1 0x20 DUP3 DUP5 SUB SLT ISZERO PUSH2 0x1301 JUMPI PUSH2 0x1300 PUSH2 0xD16 JUMP JUMPDEST JUMPDEST PUSH1 0x0 PUSH2 0x130F DUP5 DUP3 DUP6 ADD PUSH2 0xD69 JUMP JUMPDEST SWAP2 POP POP SWAP3 SWAP2 POP POP JUMP JUMPDEST PUSH1 0x0 PUSH1 0x20 DUP3 ADD SWAP1 POP PUSH2 0x132D PUSH1 0x0 DUP4 ADD DUP5 PUSH2 0x10C4 JUMP JUMPDEST SWAP3 SWAP2 POP POP JUMP JUMPDEST PUSH1 0x0 PUSH1 0x40 DUP3 ADD SWAP1 POP PUSH2 0x1348 PUSH1 0x0 DUP4 ADD DUP6 PUSH2 0x10C4 JUMP JUMPDEST PUSH2 0x1355 PUSH1 0x20 DUP4 ADD DUP5 PUSH2 0x10C4 JUMP JUMPDEST SWAP4 SWAP3 POP POP POP JUMP JUMPDEST PUSH1 0x0 DUP2 SWAP1 POP SWAP3 SWAP2 POP POP JUMP JUMPDEST DUP3 DUP2 DUP4 CALLDATACOPY PUSH1 0x0 DUP4 DUP4 ADD MSTORE POP POP POP JUMP JUMPDEST PUSH1 0x0 PUSH2 0x1382 DUP4 DUP6 PUSH2 0x135C JUMP JUMPDEST SWAP4 POP PUSH2 0x138F DUP4 DUP6 DUP5 PUSH2 0x1367 JUMP JUMPDEST DUP3 DUP5 ADD SWAP1 POP SWAP4 SWAP3 POP POP POP JUMP JUMPDEST PUSH1 0x0 PUSH2 0x13A8 DUP3 DUP5 DUP7 PUSH2 0x1376 JUMP JUMPDEST SWAP2 POP DUP2 SWAP1 POP SWAP4 SWAP3 POP POP POP JUMP JUMPDEST PUSH1 0x0 PUSH1 0x80 DUP3 ADD SWAP1 POP PUSH2 0x13C9 PUSH1 0x0 DUP4 ADD DUP8 PUSH2 0xF95 JUMP JUMPDEST PUSH2 0x13D6 PUSH1 0x20 DUP4 ADD DUP7 PUSH2 0x10D3 JUMP JUMPDEST PUSH2 0x13E3 PUSH1 0x40 DUP4 ADD DUP6 PUSH2 0x10C4 JUMP JUMPDEST PUSH2 0x13F0 PUSH1 0x60 DUP4 ADD DUP5 PUSH2 0xF95 JUMP JUMPDEST SWAP6 SWAP5 POP POP POP POP POP JUMP JUMPDEST PUSH32 0x4E487B7100000000000000000000000000000000000000000000000000000000 PUSH1 0x0 MSTORE PUSH1 0x41 PUSH1 0x4 MSTORE PUSH1 0x24 PUSH1 0x0 REVERT JUMPDEST PUSH1 0x0 DUP1 REVERT JUMPDEST PUSH1 0x0 DUP1 REVERT JUMPDEST PUSH1 0x0 DUP1 REVERT JUMPDEST PUSH1 0x0 DUP1 DUP4 CALLDATALOAD PUSH1 0x1 PUSH1 0x20 SUB DUP5 CALLDATASIZE SUB SUB DUP2 SLT PUSH2 0x1454 JUMPI PUSH2 0x1453 PUSH2 0x1428 JUMP JUMPDEST JUMPDEST DUP1 DUP5 ADD SWAP3 POP DUP3 CALLDATALOAD SWAP2 POP PUSH8 0xFFFFFFFFFFFFFFFF DUP3 GT ISZERO PUSH2 0x1476 JUMPI PUSH2 0x1475 PUSH2 0x142D JUMP JUMPDEST JUMPDEST PUSH1 0x20 DUP4 ADD SWAP3 POP PUSH1 0x1 DUP3 MUL CALLDATASIZE SUB DUP4 SGT ISZERO PUSH2 0x1492 JUMPI PUSH2 0x1491 PUSH2 0x1432 JUMP JUMPDEST JUMPDEST POP SWAP3 POP SWAP3 SWAP1 POP JUMP JUMPDEST PUSH32 0x4E487B7100000000000000000000000000000000000000000000000000000000 PUSH1 0x0 MSTORE PUSH1 0x22 PUSH1 0x4 MSTORE PUSH1 0x24 PUSH1 0x0 REVERT JUMPDEST PUSH1 0x0 PUSH1 0x2 DUP3 DIV SWAP1 POP PUSH1 0x1 DUP3 AND DUP1 PUSH2 0x14E1 JUMPI PUSH1 0x7F DUP3 AND SWAP2 POP JUMPDEST PUSH1 0x20 DUP3 LT DUP2 SUB PUSH2 0x14F4 JUMPI PUSH2 0x14F3 PUSH2 0x149A JUMP JUMPDEST JUMPDEST POP SWAP2 SWAP1 POP JUMP JUMPDEST PUSH1 0x0 DUP2 SWAP1 POP DUP2 PUSH1 0x0 MSTORE PUSH1 0x20 PUSH1 0x0 KECCAK256 SWAP1 POP SWAP2 SWAP1 POP JUMP JUMPDEST PUSH1 0x0 PUSH1 0x20 PUSH1 0x1F DUP4 ADD DIV SWAP1 POP SWAP2 SWAP1 POP JUMP JUMPDEST PUSH1 0x0 DUP3 DUP3 SHL SWAP1 POP SWAP3 SWAP2 POP POP JUMP JUMPDEST PUSH1 0x0 PUSH1 0x8 DUP4 MUL PUSH2 0x155C PUSH32 0xFFFFFFFFFFFFFFFFFFFFFFFFFFFFFFFFFFFFFFFFFFFFFFFFFFFFFFFFFFFFFFFF DUP3 PUSH2 0x151F JUMP JUMPDEST PUSH2 0x1566 DUP7 DUP4 PUSH2 0x151F JUMP JUMPDEST SWAP6 POP DUP1 NOT DUP5 AND SWAP4 POP DUP1 DUP7 AND DUP5 OR SWAP3 POP POP POP SWAP4 SWAP3 POP POP POP JUMP JUMPDEST PUSH1 0x0 DUP2 SWAP1 POP SWAP2 SWAP1 POP JUMP JUMPDEST PUSH1 0x0 PUSH2 0x15A3 PUSH2 0x159E PUSH2 0x1599 DUP5 PUSH2 0xDE3 JUMP JUMPDEST PUSH2 0x157E JUMP JUMPDEST PUSH2 0xDE3 JUMP JUMPDEST SWAP1 POP SWAP2 SWAP1 POP JUMP JUMPDEST PUSH1 0x0 DUP2 SWAP1 POP SWAP2 SWAP1 POP JUMP JUMPDEST PUSH2 0x15BD DUP4 PUSH2 0x1588 JUMP JUMPDEST PUSH2 0x15D1 PUSH2 0x15C9 DUP3 PUSH2 0x15AA JUMP JUMPDEST DUP5 DUP5 SLOAD PUSH2 0x152C JUMP JUMPDEST DUP3 SSTORE POP POP POP POP JUMP JUMPDEST PUSH1 0x0 SWAP1 JUMP JUMPDEST PUSH2 0x15E6 PUSH2 0x15D9 JUMP JUMPDEST PUSH2 0x15F1 DUP2 DUP5 DUP5 PUSH2 0x15B4 JUMP JUMPDEST POP POP POP JUMP JUMPDEST JUMPDEST DUP2 DUP2 LT ISZERO PUSH2 0x1615 JUMPI PUSH2 0x160A PUSH1 0x0 DUP3 PUSH2 0x15DE JUMP JUMPDEST PUSH1 0x1 DUP2 ADD SWAP1 POP PUSH2 0x15F7 JUMP JUMPDEST POP POP JUMP JUMPDEST PUSH1 0x1F DUP3 GT ISZERO PUSH2 0x165A JUMPI PUSH2 0x162B DUP2 PUSH2 0x14FA JUMP JUMPDEST PUSH2 0x1634 DUP5 PUSH2 0x150F JUMP JUMPDEST DUP2 ADD PUSH1 0x20 DUP6 LT ISZERO PUSH2 0x1643 JUMPI DUP2 SWAP1 POP JUMPDEST PUSH2 0x1657 PUSH2 0x164F DUP6 PUSH2 0x150F JUMP JUMPDEST DUP4 ADD DUP3 PUSH2 0x15F6 JUMP JUMPDEST POP POP JUMPDEST POP POP POP JUMP JUMPDEST PUSH1 0x0 DUP3 DUP3 SHR SWAP1 POP SWAP3 SWAP2 POP POP JUMP JUMPDEST PUSH1 0x0 PUSH2 0x167D PUSH1 0x0 NOT DUP5 PUSH1 0x8 MUL PUSH2 0x165F JUMP JUMPDEST NOT DUP1 DUP4 AND SWAP2 POP POP SWAP3 SWAP2 POP POP JUMP JUMPDEST PUSH1 0x0 PUSH2 0x1696 DUP4 DUP4 PUSH2 0x166C JUMP JUMPDEST SWAP2 POP DUP3 PUSH1 0x2 MUL DUP3 OR SWAP1 POP SWAP3 SWAP2 POP POP JUMP JUMPDEST PUSH2 0x16AF DUP3 PUSH2 0x106F JUMP JUMPDEST PUSH8 0xFFFFFFFFFFFFFFFF DUP2 GT ISZERO PUSH2 0x16C8 JUMPI PUSH2 0x16C7 PUSH2 0x13F9 JUMP JUMPDEST JUMPDEST PUSH2 0x16D2 DUP3 SLOAD PUSH2 0x14C9 JUMP JUMPDEST PUSH2 0x16DD DUP3 DUP3 DUP6 PUSH2 0x1619 JUMP JUMPDEST PUSH1 0x0 PUSH1 0x20 SWAP1 POP PUSH1 0x1F DUP4 GT PUSH1 0x1 DUP2 EQ PUSH2 0x1710 JUMPI PUSH1 0x0 DUP5 ISZERO PUSH2 0x16FE JUMPI DUP3 DUP8 ADD MLOAD SWAP1 POP JUMPDEST PUSH2 0x1708 DUP6 DUP3 PUSH2 0x168A JUMP JUMPDEST DUP7 SSTORE POP PUSH2 0x1770 JUMP JUMPDEST PUSH1 0x1F NOT DUP5 AND PUSH2 0x171E DUP7 PUSH2 0x14FA JUMP JUMPDEST PUSH1 0x0 JUMPDEST DUP3 DUP2 LT ISZERO PUSH2 0x1746 JUMPI DUP5 DUP10 ADD MLOAD DUP3 SSTORE PUSH1 0x1 DUP3 ADD SWAP2 POP PUSH1 0x20 DUP6 ADD SWAP5 POP PUSH1 0x20 DUP2 ADD SWAP1 POP PUSH2 0x1721 JUMP JUMPDEST DUP7 DUP4 LT ISZERO PUSH2 0x1763 JUMPI DUP5 DUP10 ADD MLOAD PUSH2 0x175F PUSH1 0x1F DUP10 AND DUP3 PUSH2 0x166C JUMP JUMPDEST DUP4 SSTORE POP JUMPDEST PUSH1 0x1 PUSH1 0x2 DUP9 MUL ADD DUP9 SSTORE POP POP POP JUMPDEST POP POP POP POP POP POP JUMP JUMPDEST PUSH1 0x0 PUSH1 0x20 DUP3 ADD SWAP1 POP DUP2 DUP2 SUB PUSH1 0x0 DUP4 ADD MSTORE PUSH2 0x1792 DUP2 DUP5 PUSH2 0x108B JUMP JUMPDEST SWAP1 POP SWAP3 SWAP2 POP POP JUMP JUMPDEST PUSH1 0x0 DUP2 SWAP1 POP PUSH1 0x20 DUP3 ADD SWAP1 POP SWAP2 SWAP1 POP JUMP JUMPDEST PUSH1 0x0 PUSH2 0x17B6 DUP3 MLOAD PUSH2 0xF8B JUMP JUMPDEST DUP1 SWAP2 POP POP SWAP2 SWAP1 POP JUMP JUMPDEST PUSH1 0x0 PUSH2 0x17CA DUP3 PUSH2 0xEAB JUMP JUMPDEST DUP3 PUSH2 0x17D4 DUP5 PUSH2 0x179A JUMP JUMPDEST SWAP1 POP PUSH2 0x17DF DUP2 PUSH2 0x17AA JUMP JUMPDEST SWAP3 POP PUSH1 0x20 DUP3 LT ISZERO PUSH2 0x181F JUMPI PUSH2 0x181A PUSH32 0xFFFFFFFFFFFFFFFFFFFFFFFFFFFFFFFFFFFFFFFFFFFFFFFFFFFFFFFFFFFFFFFF DUP4 PUSH1 0x20 SUB PUSH1 0x8 MUL PUSH2 0x151F JUMP JUMPDEST DUP4 AND SWAP3 POP JUMPDEST POP POP SWAP2 SWAP1 POP JUMP JUMPDEST PUSH32 0x4E487B7100000000000000000000000000000000000000000000000000000000 PUSH1 0x0 MSTORE PUSH1 0x21 PUSH1 0x4 MSTORE PUSH1 0x24 PUSH1 0x0 REVERT JUMPDEST PUSH32 0x45434453413A20696E76616C6964207369676E61747572650000000000000000 PUSH1 0x0 DUP3 ADD MSTORE POP JUMP JUMPDEST PUSH1 0x0 PUSH2 0x188B PUSH1 0x18 DUP4 PUSH2 0x107A JUMP JUMPDEST SWAP2 POP PUSH2 0x1896 DUP3 PUSH2 0x1855 JUMP JUMPDEST PUSH1 0x20 DUP3 ADD SWAP1 POP SWAP2 SWAP1 POP JUMP JUMPDEST PUSH1 0x0 PUSH1 0x20 DUP3 ADD SWAP1 POP DUP2 DUP2 SUB PUSH1 0x0 DUP4 ADD MSTORE PUSH2 0x18BA DUP2 PUSH2 0x187E JUMP JUMPDEST SWAP1 POP SWAP2 SWAP1 POP JUMP JUMPDEST PUSH32 0x45434453413A20696E76616C6964207369676E6174757265206C656E67746800 PUSH1 0x0 DUP3 ADD MSTORE POP JUMP JUMPDEST PUSH1 0x0 PUSH2 0x18F7 PUSH1 0x1F DUP4 PUSH2 0x107A JUMP JUMPDEST SWAP2 POP PUSH2 0x1902 DUP3 PUSH2 0x18C1 JUMP JUMPDEST PUSH1 0x20 DUP3 ADD SWAP1 POP SWAP2 SWAP1 POP JUMP JUMPDEST PUSH1 0x0 PUSH1 0x20 DUP3 ADD SWAP1 POP DUP2 DUP2 SUB PUSH1 0x0 DUP4 ADD MSTORE PUSH2 0x1926 DUP2 PUSH2 0x18EA JUMP JUMPDEST SWAP1 POP SWAP2 SWAP1 POP JUMP JUMPDEST PUSH32 0x45434453413A20696E76616C6964207369676E6174757265202773272076616C PUSH1 0x0 DUP3 ADD MSTORE PUSH32 0x7565000000000000000000000000000000000000000000000000000000000000 PUSH1 0x20 DUP3 ADD MSTORE POP JUMP JUMPDEST PUSH1 0x0 PUSH2 0x1989 PUSH1 0x22 DUP4 PUSH2 0x107A JUMP JUMPDEST SWAP2 POP PUSH2 0x1994 DUP3 PUSH2 0x192D JUMP JUMPDEST PUSH1 0x40 DUP3 ADD SWAP1 POP SWAP2 SWAP1 POP JUMP JUMPDEST PUSH1 0x0 PUSH1 0x20 DUP3 ADD SWAP1 POP DUP2 DUP2 SUB PUSH1 0x0 DUP4 ADD MSTORE PUSH2 0x19B8 DUP2 PUSH2 0x197C JUMP JUMPDEST SWAP1 POP SWAP2 SWAP1 POP JUMP JUMPDEST PUSH1 0x0 PUSH1 0xA0 DUP3 ADD SWAP1 POP PUSH2 0x19D4 PUSH1 0x0 DUP4 ADD DUP9 PUSH2 0xF95 JUMP JUMPDEST PUSH2 0x19E1 PUSH1 0x20 DUP4 ADD DUP8 PUSH2 0xF95 JUMP JUMPDEST PUSH2 0x19EE PUSH1 0x40 DUP4 ADD DUP7 PUSH2 0xF95 JUMP JUMPDEST PUSH2 0x19FB PUSH1 0x60 DUP4 ADD DUP6 PUSH2 0x10C4 JUMP JUMPDEST PUSH2 0x1A08 PUSH1 0x80 DUP4 ADD DUP5 PUSH2 0x10D3 JUMP JUMPDEST SWAP7 SWAP6 POP POP POP POP POP POP JUMP JUMPDEST PUSH1 0x0 PUSH1 0xFF DUP3 AND SWAP1 POP SWAP2 SWAP1 POP JUMP JUMPDEST PUSH2 0x1A28 DUP2 PUSH2 0x1A12 JUMP JUMPDEST DUP3 MSTORE POP POP JUMP JUMPDEST PUSH1 0x0 PUSH1 0x80 DUP3 ADD SWAP1 POP PUSH2 0x1A43 PUSH1 0x0 DUP4 ADD DUP8 PUSH2 0xF95 JUMP JUMPDEST PUSH2 0x1A50 PUSH1 0x20 DUP4 ADD DUP7 PUSH2 0x1A1F JUMP JUMPDEST PUSH2 0x1A5D PUSH1 0x40 DUP4 ADD DUP6 PUSH2 0xF95 JUMP JUMPDEST PUSH2 0x1A6A PUSH1 0x60 DUP4 ADD DUP5 PUSH2 0xF95 JUMP JUMPDEST SWAP6 SWAP5 POP POP POP POP POP JUMP INVALID LOG2 PUSH5 0x6970667358 0x22 SLT KECCAK256 SUB 0xB3 0xC7 0xF8 INVALID 0xF6 0x2F 0xD5 STOP 0xD6 0xB8 SWAP7 PC 0xB1 SWAP13 CHAINID 0x22 DIFFICULTY ADDRESS DUP12 GASLIMIT SELFDESTRUCT KECCAK256 DUP11 DELEGATECALL 0x5E 0xC0 DUP3 MUL CALLDATACOPY 0xD3 CREATE2 PUSH5 0x736F6C6343 STOP ADDMOD GT STOP CALLER "},"methodIdentifiers":{"eip712Domain()":"84b0196e","metaTxGetNonce(address)":"f4034a96","metaTxPrepare(address,bytes)":"5232f0d7","metaTxPrepareWithNonce(address,bytes,uint256)":"22dae16c","metaTxVerify((address,uint256,bytes),bytes)":"bbbfe446"}}}}}